{
	"EdTechIntegrationHub.sol": {
		"EdTechIntegrationHub": {
			"abi": [
				{
					"anonymous": false,
					"inputs": [
						{
							"indexed": false,
							"internalType": "uint256",
							"name": "toolId",
							"type": "uint256"
						},
						{
							"indexed": false,
							"internalType": "address",
							"name": "user",
							"type": "address"
						}
					],
					"name": "AccessGranted",
					"type": "event"
				},
				{
					"anonymous": false,
					"inputs": [
						{
							"indexed": false,
							"internalType": "uint256",
							"name": "toolId",
							"type": "uint256"
						},
						{
							"indexed": false,
							"internalType": "address",
							"name": "user",
							"type": "address"
						}
					],
					"name": "AccessRevoked",
					"type": "event"
				},
				{
					"anonymous": false,
					"inputs": [
						{
							"indexed": false,
							"internalType": "uint256",
							"name": "toolId",
							"type": "uint256"
						},
						{
							"indexed": false,
							"internalType": "string",
							"name": "name",
							"type": "string"
						},
						{
							"indexed": false,
							"internalType": "address",
							"name": "owner",
							"type": "address"
						}
					],
					"name": "ToolRegistered",
					"type": "event"
				},
				{
					"inputs": [
						{
							"internalType": "uint256",
							"name": "_toolId",
							"type": "uint256"
						}
					],
					"name": "deactivateTool",
					"outputs": [],
					"stateMutability": "nonpayable",
					"type": "function"
				},
				{
					"inputs": [
						{
							"internalType": "uint256",
							"name": "_toolId",
							"type": "uint256"
						},
						{
							"internalType": "address",
							"name": "_user",
							"type": "address"
						}
					],
					"name": "grantAccess",
					"outputs": [],
					"stateMutability": "nonpayable",
					"type": "function"
				},
				{
					"inputs": [
						{
							"internalType": "uint256",
							"name": "_toolId",
							"type": "uint256"
						},
						{
							"internalType": "address",
							"name": "_user",
							"type": "address"
						}
					],
					"name": "hasAccess",
					"outputs": [
						{
							"internalType": "bool",
							"name": "",
							"type": "bool"
						}
					],
					"stateMutability": "view",
					"type": "function"
				},
				{
					"inputs": [
						{
							"internalType": "uint256",
							"name": "_toolId",
							"type": "uint256"
						}
					],
					"name": "reactivateTool",
					"outputs": [],
					"stateMutability": "nonpayable",
					"type": "function"
				},
				{
					"inputs": [
						{
							"internalType": "string",
							"name": "_name",
							"type": "string"
						},
						{
							"internalType": "string",
							"name": "_description",
							"type": "string"
						}
					],
					"name": "registerTool",
					"outputs": [],
					"stateMutability": "nonpayable",
					"type": "function"
				},
				{
					"inputs": [
						{
							"internalType": "uint256",
							"name": "_toolId",
							"type": "uint256"
						},
						{
							"internalType": "address",
							"name": "_user",
							"type": "address"
						}
					],
					"name": "revokeAccess",
					"outputs": [],
					"stateMutability": "nonpayable",
					"type": "function"
				},
				{
					"inputs": [],
					"name": "toolCount",
					"outputs": [
						{
							"internalType": "uint256",
							"name": "",
							"type": "uint256"
						}
					],
					"stateMutability": "view",
					"type": "function"
				},
				{
					"inputs": [
						{
							"internalType": "uint256",
							"name": "",
							"type": "uint256"
						}
					],
					"name": "tools",
					"outputs": [
						{
							"internalType": "string",
							"name": "name",
							"type": "string"
						},
						{
							"internalType": "string",
							"name": "description",
							"type": "string"
						},
						{
							"internalType": "address",
							"name": "owner",
							"type": "address"
						},
						{
							"internalType": "bool",
							"name": "isActive",
							"type": "bool"
						}
					],
					"stateMutability": "view",
					"type": "function"
				},
				{
					"inputs": [
						{
							"internalType": "address",
							"name": "",
							"type": "address"
						},
						{
							"internalType": "uint256",
							"name": "",
							"type": "uint256"
						}
					],
					"name": "userAccess",
					"outputs": [
						{
							"internalType": "bool",
							"name": "",
							"type": "bool"
						}
					],
					"stateMutability": "view",
					"type": "function"
				}
			],
			"devdoc": {
				"kind": "dev",
				"methods": {},
				"version": 1
			},
			"evm": {
				"assembly": "    /* \"EdTechIntegrationHub.sol\":60:2324  contract EdTechIntegrationHub {... */\n  mstore(0x40, 0x80)\n  callvalue\n  dup1\n  iszero\n  tag_1\n  jumpi\n  0x00\n  dup1\n  revert\ntag_1:\n  pop\n  dataSize(sub_0)\n  dup1\n  dataOffset(sub_0)\n  0x00\n  codecopy\n  0x00\n  return\nstop\n\nsub_0: assembly {\n        /* \"EdTechIntegrationHub.sol\":60:2324  contract EdTechIntegrationHub {... */\n      mstore(0x40, 0x80)\n      callvalue\n      dup1\n      iszero\n      tag_1\n      jumpi\n      0x00\n      dup1\n      revert\n    tag_1:\n      pop\n      jumpi(tag_2, lt(calldatasize, 0x04))\n      shr(0xe0, calldataload(0x00))\n      dup1\n      0xbc60c31d\n      gt\n      tag_12\n      jumpi\n      dup1\n      0xbc60c31d\n      eq\n      tag_7\n      jumpi\n      dup1\n      0xc82d3a55\n      eq\n      tag_8\n      jumpi\n      dup1\n      0xced14198\n      eq\n      tag_9\n      jumpi\n      dup1\n      0xd9a5ec1b\n      eq\n      tag_10\n      jumpi\n      dup1\n      0xfaf23b23\n      eq\n      tag_11\n      jumpi\n      jump(tag_2)\n    tag_12:\n      dup1\n      0x20d79486\n      eq\n      tag_3\n      jumpi\n      dup1\n      0x4ad35e2e\n      eq\n      tag_4\n      jumpi\n      dup1\n      0x65dd152c\n      eq\n      tag_5\n      jumpi\n      dup1\n      0xb861a453\n      eq\n      tag_6\n      jumpi\n    tag_2:\n      0x00\n      dup1\n      revert\n        /* \"EdTechIntegrationHub.sol\":2046:2167  function deactivateTool(uint256 _toolId) public onlyToolOwner(_toolId) {... */\n    tag_3:\n      tag_13\n      0x04\n      dup1\n      calldatasize\n      sub\n      dup2\n      add\n      swap1\n      tag_14\n      swap2\n      swap1\n      tag_15\n      jump\t// in\n    tag_14:\n      tag_16\n      jump\t// in\n    tag_13:\n      stop\n        /* \"EdTechIntegrationHub.sol\":959:1202  function registerTool(string memory _name, string memory _description) public {... */\n    tag_4:\n      tag_17\n      0x04\n      dup1\n      calldatasize\n      sub\n      dup2\n      add\n      swap1\n      tag_18\n      swap2\n      swap1\n      tag_19\n      jump\t// in\n    tag_18:\n      tag_20\n      jump\t// in\n    tag_17:\n      stop\n        /* \"EdTechIntegrationHub.sol\":1261:1508  function grantAccess(uint256 _toolId, address _user) public onlyToolOwner(_toolId) {... */\n    tag_5:\n      tag_21\n      0x04\n      dup1\n      calldatasize\n      sub\n      dup2\n      add\n      swap1\n      tag_22\n      swap2\n      swap1\n      tag_23\n      jump\t// in\n    tag_22:\n      tag_24\n      jump\t// in\n    tag_21:\n      stop\n        /* \"EdTechIntegrationHub.sol\":2201:2321  function reactivateTool(uint256 _toolId) public onlyToolOwner(_toolId) {... */\n    tag_6:\n      tag_25\n      0x04\n      dup1\n      calldatasize\n      sub\n      dup2\n      add\n      swap1\n      tag_26\n      swap2\n      swap1\n      tag_15\n      jump\t// in\n    tag_26:\n      tag_27\n      jump\t// in\n    tag_25:\n      stop\n        /* \"EdTechIntegrationHub.sol\":326:363  mapping(uint256 => Tool) public tools */\n    tag_7:\n      tag_28\n      0x04\n      dup1\n      calldatasize\n      sub\n      dup2\n      add\n      swap1\n      tag_29\n      swap2\n      swap1\n      tag_15\n      jump\t// in\n    tag_29:\n      tag_30\n      jump\t// in\n    tag_28:\n      mload(0x40)\n      tag_31\n      swap5\n      swap4\n      swap3\n      swap2\n      swap1\n      tag_32\n      jump\t// in\n    tag_31:\n      mload(0x40)\n      dup1\n      swap2\n      sub\n      swap1\n      return\n        /* \"EdTechIntegrationHub.sol\":418:480  mapping(address => mapping(uint256 => bool)) public userAccess */\n    tag_8:\n      tag_33\n      0x04\n      dup1\n      calldatasize\n      sub\n      dup2\n      add\n      swap1\n      tag_34\n      swap2\n      swap1\n      tag_35\n      jump\t// in\n    tag_34:\n      tag_36\n      jump\t// in\n    tag_33:\n      mload(0x40)\n      tag_37\n      swap2\n      swap1\n      tag_38\n      jump\t// in\n    tag_37:\n      mload(0x40)\n      dup1\n      swap2\n      sub\n      swap1\n      return\n        /* \"EdTechIntegrationHub.sol\":1882:2012  function hasAccess(uint256 _toolId, address _user) public view returns (bool) {... */\n    tag_9:\n      tag_39\n      0x04\n      dup1\n      calldatasize\n      sub\n      dup2\n      add\n      swap1\n      tag_40\n      swap2\n      swap1\n      tag_23\n      jump\t// in\n    tag_40:\n      tag_41\n      jump\t// in\n    tag_39:\n      mload(0x40)\n      tag_42\n      swap2\n      swap1\n      tag_38\n      jump\t// in\n    tag_42:\n      mload(0x40)\n      dup1\n      swap2\n      sub\n      swap1\n      return\n        /* \"EdTechIntegrationHub.sol\":1570:1829  function revokeAccess(uint256 _toolId, address _user) public onlyToolOwner(_toolId) {... */\n    tag_10:\n      tag_43\n      0x04\n      dup1\n      calldatasize\n      sub\n      dup2\n      add\n      swap1\n      tag_44\n      swap2\n      swap1\n      tag_23\n      jump\t// in\n    tag_44:\n      tag_45\n      jump\t// in\n    tag_43:\n      stop\n        /* \"EdTechIntegrationHub.sol\":489:513  uint256 public toolCount */\n    tag_11:\n      tag_46\n      tag_47\n      jump\t// in\n    tag_46:\n      mload(0x40)\n      tag_48\n      swap2\n      swap1\n      tag_49\n      jump\t// in\n    tag_48:\n      mload(0x40)\n      dup1\n      swap2\n      sub\n      swap1\n      return\n        /* \"EdTechIntegrationHub.sol\":2046:2167  function deactivateTool(uint256 _toolId) public onlyToolOwner(_toolId) {... */\n    tag_16:\n        /* \"EdTechIntegrationHub.sol\":2108:2115  _toolId */\n      dup1\n        /* \"EdTechIntegrationHub.sol\":863:873  msg.sender */\n      caller\n        /* \"EdTechIntegrationHub.sol\":839:873  tools[_toolId].owner == msg.sender */\n      0xffffffffffffffffffffffffffffffffffffffff\n      and\n        /* \"EdTechIntegrationHub.sol\":839:844  tools */\n      0x00\n        /* \"EdTechIntegrationHub.sol\":839:853  tools[_toolId] */\n      dup1\n        /* \"EdTechIntegrationHub.sol\":845:852  _toolId */\n      dup4\n        /* \"EdTechIntegrationHub.sol\":839:853  tools[_toolId] */\n      dup2\n      mstore\n      0x20\n      add\n      swap1\n      dup2\n      mstore\n      0x20\n      add\n      0x00\n      keccak256\n        /* \"EdTechIntegrationHub.sol\":839:859  tools[_toolId].owner */\n      0x02\n      add\n      0x00\n      swap1\n      sload\n      swap1\n      0x0100\n      exp\n      swap1\n      div\n      0xffffffffffffffffffffffffffffffffffffffff\n      and\n        /* \"EdTechIntegrationHub.sol\":839:873  tools[_toolId].owner == msg.sender */\n      0xffffffffffffffffffffffffffffffffffffffff\n      and\n      eq\n        /* \"EdTechIntegrationHub.sol\":831:896  require(tools[_toolId].owner == msg.sender, \"Not the tool owner\") */\n      tag_51\n      jumpi\n      mload(0x40)\n      0x08c379a000000000000000000000000000000000000000000000000000000000\n      dup2\n      mstore\n      0x04\n      add\n      tag_52\n      swap1\n      tag_53\n      jump\t// in\n    tag_52:\n      mload(0x40)\n      dup1\n      swap2\n      sub\n      swap1\n      revert\n    tag_51:\n        /* \"EdTechIntegrationHub.sol\":2154:2159  false */\n      0x00\n        /* \"EdTechIntegrationHub.sol\":2128:2133  tools */\n      dup1\n        /* \"EdTechIntegrationHub.sol\":2128:2142  tools[_toolId] */\n      0x00\n        /* \"EdTechIntegrationHub.sol\":2134:2141  _toolId */\n      dup5\n        /* \"EdTechIntegrationHub.sol\":2128:2142  tools[_toolId] */\n      dup2\n      mstore\n      0x20\n      add\n      swap1\n      dup2\n      mstore\n      0x20\n      add\n      0x00\n      keccak256\n        /* \"EdTechIntegrationHub.sol\":2128:2151  tools[_toolId].isActive */\n      0x02\n      add\n      0x14\n        /* \"EdTechIntegrationHub.sol\":2128:2159  tools[_toolId].isActive = false */\n      0x0100\n      exp\n      dup2\n      sload\n      dup2\n      0xff\n      mul\n      not\n      and\n      swap1\n      dup4\n      iszero\n      iszero\n      mul\n      or\n      swap1\n      sstore\n      pop\n        /* \"EdTechIntegrationHub.sol\":2046:2167  function deactivateTool(uint256 _toolId) public onlyToolOwner(_toolId) {... */\n      pop\n      pop\n      jump\t// out\n        /* \"EdTechIntegrationHub.sol\":959:1202  function registerTool(string memory _name, string memory _description) public {... */\n    tag_20:\n        /* \"EdTechIntegrationHub.sol\":1048:1057  toolCount */\n      0x02\n      0x00\n        /* \"EdTechIntegrationHub.sol\":1048:1059  toolCount++ */\n      dup2\n      sload\n      dup1\n      swap3\n      swap2\n      swap1\n      tag_56\n      swap1\n      tag_57\n      jump\t// in\n    tag_56:\n      swap2\n      swap1\n      pop\n      sstore\n      pop\n        /* \"EdTechIntegrationHub.sol\":1089:1132  Tool(_name, _description, msg.sender, true) */\n      mload(0x40)\n      dup1\n      0x80\n      add\n      0x40\n      mstore\n      dup1\n        /* \"EdTechIntegrationHub.sol\":1094:1099  _name */\n      dup4\n        /* \"EdTechIntegrationHub.sol\":1089:1132  Tool(_name, _description, msg.sender, true) */\n      dup2\n      mstore\n      0x20\n      add\n        /* \"EdTechIntegrationHub.sol\":1101:1113  _description */\n      dup3\n        /* \"EdTechIntegrationHub.sol\":1089:1132  Tool(_name, _description, msg.sender, true) */\n      dup2\n      mstore\n      0x20\n      add\n        /* \"EdTechIntegrationHub.sol\":1115:1125  msg.sender */\n      caller\n        /* \"EdTechIntegrationHub.sol\":1089:1132  Tool(_name, _description, msg.sender, true) */\n      0xffffffffffffffffffffffffffffffffffffffff\n      and\n      dup2\n      mstore\n      0x20\n      add\n        /* \"EdTechIntegrationHub.sol\":1127:1131  true */\n      0x01\n        /* \"EdTechIntegrationHub.sol\":1089:1132  Tool(_name, _description, msg.sender, true) */\n      iszero\n      iszero\n      dup2\n      mstore\n      pop\n        /* \"EdTechIntegrationHub.sol\":1070:1075  tools */\n      0x00\n        /* \"EdTechIntegrationHub.sol\":1070:1086  tools[toolCount] */\n      dup1\n        /* \"EdTechIntegrationHub.sol\":1076:1085  toolCount */\n      sload(0x02)\n        /* \"EdTechIntegrationHub.sol\":1070:1086  tools[toolCount] */\n      dup2\n      mstore\n      0x20\n      add\n      swap1\n      dup2\n      mstore\n      0x20\n      add\n      0x00\n      keccak256\n        /* \"EdTechIntegrationHub.sol\":1070:1132  tools[toolCount] = Tool(_name, _description, msg.sender, true) */\n      0x00\n      dup3\n      add\n      mload\n      dup2\n      0x00\n      add\n      swap1\n      dup2\n      tag_58\n      swap2\n      swap1\n      tag_59\n      jump\t// in\n    tag_58:\n      pop\n      0x20\n      dup3\n      add\n      mload\n      dup2\n      0x01\n      add\n      swap1\n      dup2\n      tag_60\n      swap2\n      swap1\n      tag_59\n      jump\t// in\n    tag_60:\n      pop\n      0x40\n      dup3\n      add\n      mload\n      dup2\n      0x02\n      add\n      exp(0x0100, 0x00)\n      dup2\n      sload\n      dup2\n      0xffffffffffffffffffffffffffffffffffffffff\n      mul\n      not\n      and\n      swap1\n      dup4\n      0xffffffffffffffffffffffffffffffffffffffff\n      and\n      mul\n      or\n      swap1\n      sstore\n      pop\n      0x60\n      dup3\n      add\n      mload\n      dup2\n      0x02\n      add\n      exp(0x0100, 0x14)\n      dup2\n      sload\n      dup2\n      0xff\n      mul\n      not\n      and\n      swap1\n      dup4\n      iszero\n      iszero\n      mul\n      or\n      swap1\n      sstore\n      pop\n      swap1\n      pop\n      pop\n        /* \"EdTechIntegrationHub.sol\":1150:1194  ToolRegistered(toolCount, _name, msg.sender) */\n      0x143be77a13f3d2312e1153bbf9a5580c985d4a459dce180f2957d9d7fa004111\n        /* \"EdTechIntegrationHub.sol\":1165:1174  toolCount */\n      sload(0x02)\n        /* \"EdTechIntegrationHub.sol\":1176:1181  _name */\n      dup4\n        /* \"EdTechIntegrationHub.sol\":1183:1193  msg.sender */\n      caller\n        /* \"EdTechIntegrationHub.sol\":1150:1194  ToolRegistered(toolCount, _name, msg.sender) */\n      mload(0x40)\n      tag_61\n      swap4\n      swap3\n      swap2\n      swap1\n      tag_62\n      jump\t// in\n    tag_61:\n      mload(0x40)\n      dup1\n      swap2\n      sub\n      swap1\n      log1\n        /* \"EdTechIntegrationHub.sol\":959:1202  function registerTool(string memory _name, string memory _description) public {... */\n      pop\n      pop\n      jump\t// out\n        /* \"EdTechIntegrationHub.sol\":1261:1508  function grantAccess(uint256 _toolId, address _user) public onlyToolOwner(_toolId) {... */\n    tag_24:\n        /* \"EdTechIntegrationHub.sol\":1335:1342  _toolId */\n      dup2\n        /* \"EdTechIntegrationHub.sol\":863:873  msg.sender */\n      caller\n        /* \"EdTechIntegrationHub.sol\":839:873  tools[_toolId].owner == msg.sender */\n      0xffffffffffffffffffffffffffffffffffffffff\n      and\n        /* \"EdTechIntegrationHub.sol\":839:844  tools */\n      0x00\n        /* \"EdTechIntegrationHub.sol\":839:853  tools[_toolId] */\n      dup1\n        /* \"EdTechIntegrationHub.sol\":845:852  _toolId */\n      dup4\n        /* \"EdTechIntegrationHub.sol\":839:853  tools[_toolId] */\n      dup2\n      mstore\n      0x20\n      add\n      swap1\n      dup2\n      mstore\n      0x20\n      add\n      0x00\n      keccak256\n        /* \"EdTechIntegrationHub.sol\":839:859  tools[_toolId].owner */\n      0x02\n      add\n      0x00\n      swap1\n      sload\n      swap1\n      0x0100\n      exp\n      swap1\n      div\n      0xffffffffffffffffffffffffffffffffffffffff\n      and\n        /* \"EdTechIntegrationHub.sol\":839:873  tools[_toolId].owner == msg.sender */\n      0xffffffffffffffffffffffffffffffffffffffff\n      and\n      eq\n        /* \"EdTechIntegrationHub.sol\":831:896  require(tools[_toolId].owner == msg.sender, \"Not the tool owner\") */\n      tag_64\n      jumpi\n      mload(0x40)\n      0x08c379a000000000000000000000000000000000000000000000000000000000\n      dup2\n      mstore\n      0x04\n      add\n      tag_65\n      swap1\n      tag_53\n      jump\t// in\n    tag_65:\n      mload(0x40)\n      dup1\n      swap2\n      sub\n      swap1\n      revert\n    tag_64:\n        /* \"EdTechIntegrationHub.sol\":1363:1368  tools */\n      0x00\n        /* \"EdTechIntegrationHub.sol\":1363:1377  tools[_toolId] */\n      dup1\n        /* \"EdTechIntegrationHub.sol\":1369:1376  _toolId */\n      dup5\n        /* \"EdTechIntegrationHub.sol\":1363:1377  tools[_toolId] */\n      dup2\n      mstore\n      0x20\n      add\n      swap1\n      dup2\n      mstore\n      0x20\n      add\n      0x00\n      keccak256\n        /* \"EdTechIntegrationHub.sol\":1363:1386  tools[_toolId].isActive */\n      0x02\n      add\n      0x14\n      swap1\n      sload\n      swap1\n      0x0100\n      exp\n      swap1\n      div\n      0xff\n      and\n        /* \"EdTechIntegrationHub.sol\":1355:1409  require(tools[_toolId].isActive, \"Tool is not active\") */\n      tag_67\n      jumpi\n      mload(0x40)\n      0x08c379a000000000000000000000000000000000000000000000000000000000\n      dup2\n      mstore\n      0x04\n      add\n      tag_68\n      swap1\n      tag_69\n      jump\t// in\n    tag_68:\n      mload(0x40)\n      dup1\n      swap2\n      sub\n      swap1\n      revert\n    tag_67:\n        /* \"EdTechIntegrationHub.sol\":1449:1453  true */\n      0x01\n        /* \"EdTechIntegrationHub.sol\":1420:1430  userAccess */\n      dup1\n        /* \"EdTechIntegrationHub.sol\":1420:1437  userAccess[_user] */\n      0x00\n        /* \"EdTechIntegrationHub.sol\":1431:1436  _user */\n      dup5\n        /* \"EdTechIntegrationHub.sol\":1420:1437  userAccess[_user] */\n      0xffffffffffffffffffffffffffffffffffffffff\n      and\n      0xffffffffffffffffffffffffffffffffffffffff\n      and\n      dup2\n      mstore\n      0x20\n      add\n      swap1\n      dup2\n      mstore\n      0x20\n      add\n      0x00\n      keccak256\n        /* \"EdTechIntegrationHub.sol\":1420:1446  userAccess[_user][_toolId] */\n      0x00\n        /* \"EdTechIntegrationHub.sol\":1438:1445  _toolId */\n      dup6\n        /* \"EdTechIntegrationHub.sol\":1420:1446  userAccess[_user][_toolId] */\n      dup2\n      mstore\n      0x20\n      add\n      swap1\n      dup2\n      mstore\n      0x20\n      add\n      0x00\n      keccak256\n      0x00\n        /* \"EdTechIntegrationHub.sol\":1420:1453  userAccess[_user][_toolId] = true */\n      0x0100\n      exp\n      dup2\n      sload\n      dup2\n      0xff\n      mul\n      not\n      and\n      swap1\n      dup4\n      iszero\n      iszero\n      mul\n      or\n      swap1\n      sstore\n      pop\n        /* \"EdTechIntegrationHub.sol\":1471:1500  AccessGranted(_toolId, _user) */\n      0x3c3a9147a1fc73dd51a32f4d10c43d457e8cb826eb6f35cac6349eb965ba82b4\n        /* \"EdTechIntegrationHub.sol\":1485:1492  _toolId */\n      dup4\n        /* \"EdTechIntegrationHub.sol\":1494:1499  _user */\n      dup4\n        /* \"EdTechIntegrationHub.sol\":1471:1500  AccessGranted(_toolId, _user) */\n      mload(0x40)\n      tag_70\n      swap3\n      swap2\n      swap1\n      tag_71\n      jump\t// in\n    tag_70:\n      mload(0x40)\n      dup1\n      swap2\n      sub\n      swap1\n      log1\n        /* \"EdTechIntegrationHub.sol\":1261:1508  function grantAccess(uint256 _toolId, address _user) public onlyToolOwner(_toolId) {... */\n      pop\n      pop\n      pop\n      jump\t// out\n        /* \"EdTechIntegrationHub.sol\":2201:2321  function reactivateTool(uint256 _toolId) public onlyToolOwner(_toolId) {... */\n    tag_27:\n        /* \"EdTechIntegrationHub.sol\":2263:2270  _toolId */\n      dup1\n        /* \"EdTechIntegrationHub.sol\":863:873  msg.sender */\n      caller\n        /* \"EdTechIntegrationHub.sol\":839:873  tools[_toolId].owner == msg.sender */\n      0xffffffffffffffffffffffffffffffffffffffff\n      and\n        /* \"EdTechIntegrationHub.sol\":839:844  tools */\n      0x00\n        /* \"EdTechIntegrationHub.sol\":839:853  tools[_toolId] */\n      dup1\n        /* \"EdTechIntegrationHub.sol\":845:852  _toolId */\n      dup4\n        /* \"EdTechIntegrationHub.sol\":839:853  tools[_toolId] */\n      dup2\n      mstore\n      0x20\n      add\n      swap1\n      dup2\n      mstore\n      0x20\n      add\n      0x00\n      keccak256\n        /* \"EdTechIntegrationHub.sol\":839:859  tools[_toolId].owner */\n      0x02\n      add\n      0x00\n      swap1\n      sload\n      swap1\n      0x0100\n      exp\n      swap1\n      div\n      0xffffffffffffffffffffffffffffffffffffffff\n      and\n        /* \"EdTechIntegrationHub.sol\":839:873  tools[_toolId].owner == msg.sender */\n      0xffffffffffffffffffffffffffffffffffffffff\n      and\n      eq\n        /* \"EdTechIntegrationHub.sol\":831:896  require(tools[_toolId].owner == msg.sender, \"Not the tool owner\") */\n      tag_73\n      jumpi\n      mload(0x40)\n      0x08c379a000000000000000000000000000000000000000000000000000000000\n      dup2\n      mstore\n      0x04\n      add\n      tag_74\n      swap1\n      tag_53\n      jump\t// in\n    tag_74:\n      mload(0x40)\n      dup1\n      swap2\n      sub\n      swap1\n      revert\n    tag_73:\n        /* \"EdTechIntegrationHub.sol\":2309:2313  true */\n      0x01\n        /* \"EdTechIntegrationHub.sol\":2283:2288  tools */\n      0x00\n        /* \"EdTechIntegrationHub.sol\":2283:2297  tools[_toolId] */\n      dup1\n        /* \"EdTechIntegrationHub.sol\":2289:2296  _toolId */\n      dup5\n        /* \"EdTechIntegrationHub.sol\":2283:2297  tools[_toolId] */\n      dup2\n      mstore\n      0x20\n      add\n      swap1\n      dup2\n      mstore\n      0x20\n      add\n      0x00\n      keccak256\n        /* \"EdTechIntegrationHub.sol\":2283:2306  tools[_toolId].isActive */\n      0x02\n      add\n      0x14\n        /* \"EdTechIntegrationHub.sol\":2283:2313  tools[_toolId].isActive = true */\n      0x0100\n      exp\n      dup2\n      sload\n      dup2\n      0xff\n      mul\n      not\n      and\n      swap1\n      dup4\n      iszero\n      iszero\n      mul\n      or\n      swap1\n      sstore\n      pop\n        /* \"EdTechIntegrationHub.sol\":2201:2321  function reactivateTool(uint256 _toolId) public onlyToolOwner(_toolId) {... */\n      pop\n      pop\n      jump\t// out\n        /* \"EdTechIntegrationHub.sol\":326:363  mapping(uint256 => Tool) public tools */\n    tag_30:\n      mstore(0x20, 0x00)\n      dup1\n      0x00\n      mstore\n      keccak256(0x00, 0x40)\n      0x00\n      swap2\n      pop\n      swap1\n      pop\n      dup1\n      0x00\n      add\n      dup1\n      sload\n      tag_76\n      swap1\n      tag_77\n      jump\t// in\n    tag_76:\n      dup1\n      0x1f\n      add\n      0x20\n      dup1\n      swap2\n      div\n      mul\n      0x20\n      add\n      mload(0x40)\n      swap1\n      dup2\n      add\n      0x40\n      mstore\n      dup1\n      swap3\n      swap2\n      swap1\n      dup2\n      dup2\n      mstore\n      0x20\n      add\n      dup3\n      dup1\n      sload\n      tag_78\n      swap1\n      tag_77\n      jump\t// in\n    tag_78:\n      dup1\n      iszero\n      tag_79\n      jumpi\n      dup1\n      0x1f\n      lt\n      tag_80\n      jumpi\n      0x0100\n      dup1\n      dup4\n      sload\n      div\n      mul\n      dup4\n      mstore\n      swap2\n      0x20\n      add\n      swap2\n      jump(tag_79)\n    tag_80:\n      dup3\n      add\n      swap2\n      swap1\n      0x00\n      mstore\n      keccak256(0x00, 0x20)\n      swap1\n    tag_81:\n      dup2\n      sload\n      dup2\n      mstore\n      swap1\n      0x01\n      add\n      swap1\n      0x20\n      add\n      dup1\n      dup4\n      gt\n      tag_81\n      jumpi\n      dup3\n      swap1\n      sub\n      0x1f\n      and\n      dup3\n      add\n      swap2\n    tag_79:\n      pop\n      pop\n      pop\n      pop\n      pop\n      swap1\n      dup1\n      0x01\n      add\n      dup1\n      sload\n      tag_82\n      swap1\n      tag_77\n      jump\t// in\n    tag_82:\n      dup1\n      0x1f\n      add\n      0x20\n      dup1\n      swap2\n      div\n      mul\n      0x20\n      add\n      mload(0x40)\n      swap1\n      dup2\n      add\n      0x40\n      mstore\n      dup1\n      swap3\n      swap2\n      swap1\n      dup2\n      dup2\n      mstore\n      0x20\n      add\n      dup3\n      dup1\n      sload\n      tag_83\n      swap1\n      tag_77\n      jump\t// in\n    tag_83:\n      dup1\n      iszero\n      tag_84\n      jumpi\n      dup1\n      0x1f\n      lt\n      tag_85\n      jumpi\n      0x0100\n      dup1\n      dup4\n      sload\n      div\n      mul\n      dup4\n      mstore\n      swap2\n      0x20\n      add\n      swap2\n      jump(tag_84)\n    tag_85:\n      dup3\n      add\n      swap2\n      swap1\n      0x00\n      mstore\n      keccak256(0x00, 0x20)\n      swap1\n    tag_86:\n      dup2\n      sload\n      dup2\n      mstore\n      swap1\n      0x01\n      add\n      swap1\n      0x20\n      add\n      dup1\n      dup4\n      gt\n      tag_86\n      jumpi\n      dup3\n      swap1\n      sub\n      0x1f\n      and\n      dup3\n      add\n      swap2\n    tag_84:\n      pop\n      pop\n      pop\n      pop\n      pop\n      swap1\n      dup1\n      0x02\n      add\n      0x00\n      swap1\n      sload\n      swap1\n      0x0100\n      exp\n      swap1\n      div\n      0xffffffffffffffffffffffffffffffffffffffff\n      and\n      swap1\n      dup1\n      0x02\n      add\n      0x14\n      swap1\n      sload\n      swap1\n      0x0100\n      exp\n      swap1\n      div\n      0xff\n      and\n      swap1\n      pop\n      dup5\n      jump\t// out\n        /* \"EdTechIntegrationHub.sol\":418:480  mapping(address => mapping(uint256 => bool)) public userAccess */\n    tag_36:\n      mstore(0x20, 0x01)\n      dup2\n      0x00\n      mstore\n      mstore(0x20, keccak256(0x00, 0x40))\n      dup1\n      0x00\n      mstore\n      keccak256(0x00, 0x40)\n      0x00\n      swap2\n      pop\n      swap2\n      pop\n      swap1\n      sload\n      swap1\n      0x0100\n      exp\n      swap1\n      div\n      0xff\n      and\n      dup2\n      jump\t// out\n        /* \"EdTechIntegrationHub.sol\":1882:2012  function hasAccess(uint256 _toolId, address _user) public view returns (bool) {... */\n    tag_41:\n        /* \"EdTechIntegrationHub.sol\":1954:1958  bool */\n      0x00\n        /* \"EdTechIntegrationHub.sol\":1978:1988  userAccess */\n      0x01\n        /* \"EdTechIntegrationHub.sol\":1978:1995  userAccess[_user] */\n      0x00\n        /* \"EdTechIntegrationHub.sol\":1989:1994  _user */\n      dup4\n        /* \"EdTechIntegrationHub.sol\":1978:1995  userAccess[_user] */\n      0xffffffffffffffffffffffffffffffffffffffff\n      and\n      0xffffffffffffffffffffffffffffffffffffffff\n      and\n      dup2\n      mstore\n      0x20\n      add\n      swap1\n      dup2\n      mstore\n      0x20\n      add\n      0x00\n      keccak256\n        /* \"EdTechIntegrationHub.sol\":1978:2004  userAccess[_user][_toolId] */\n      0x00\n        /* \"EdTechIntegrationHub.sol\":1996:2003  _toolId */\n      dup5\n        /* \"EdTechIntegrationHub.sol\":1978:2004  userAccess[_user][_toolId] */\n      dup2\n      mstore\n      0x20\n      add\n      swap1\n      dup2\n      mstore\n      0x20\n      add\n      0x00\n      keccak256\n      0x00\n      swap1\n      sload\n      swap1\n      0x0100\n      exp\n      swap1\n      div\n      0xff\n      and\n        /* \"EdTechIntegrationHub.sol\":1971:2004  return userAccess[_user][_toolId] */\n      swap1\n      pop\n        /* \"EdTechIntegrationHub.sol\":1882:2012  function hasAccess(uint256 _toolId, address _user) public view returns (bool) {... */\n      swap3\n      swap2\n      pop\n      pop\n      jump\t// out\n        /* \"EdTechIntegrationHub.sol\":1570:1829  function revokeAccess(uint256 _toolId, address _user) public onlyToolOwner(_toolId) {... */\n    tag_45:\n        /* \"EdTechIntegrationHub.sol\":1645:1652  _toolId */\n      dup2\n        /* \"EdTechIntegrationHub.sol\":863:873  msg.sender */\n      caller\n        /* \"EdTechIntegrationHub.sol\":839:873  tools[_toolId].owner == msg.sender */\n      0xffffffffffffffffffffffffffffffffffffffff\n      and\n        /* \"EdTechIntegrationHub.sol\":839:844  tools */\n      0x00\n        /* \"EdTechIntegrationHub.sol\":839:853  tools[_toolId] */\n      dup1\n        /* \"EdTechIntegrationHub.sol\":845:852  _toolId */\n      dup4\n        /* \"EdTechIntegrationHub.sol\":839:853  tools[_toolId] */\n      dup2\n      mstore\n      0x20\n      add\n      swap1\n      dup2\n      mstore\n      0x20\n      add\n      0x00\n      keccak256\n        /* \"EdTechIntegrationHub.sol\":839:859  tools[_toolId].owner */\n      0x02\n      add\n      0x00\n      swap1\n      sload\n      swap1\n      0x0100\n      exp\n      swap1\n      div\n      0xffffffffffffffffffffffffffffffffffffffff\n      and\n        /* \"EdTechIntegrationHub.sol\":839:873  tools[_toolId].owner == msg.sender */\n      0xffffffffffffffffffffffffffffffffffffffff\n      and\n      eq\n        /* \"EdTechIntegrationHub.sol\":831:896  require(tools[_toolId].owner == msg.sender, \"Not the tool owner\") */\n      tag_89\n      jumpi\n      mload(0x40)\n      0x08c379a000000000000000000000000000000000000000000000000000000000\n      dup2\n      mstore\n      0x04\n      add\n      tag_90\n      swap1\n      tag_53\n      jump\t// in\n    tag_90:\n      mload(0x40)\n      dup1\n      swap2\n      sub\n      swap1\n      revert\n    tag_89:\n        /* \"EdTechIntegrationHub.sol\":1673:1683  userAccess */\n      0x01\n        /* \"EdTechIntegrationHub.sol\":1673:1690  userAccess[_user] */\n      0x00\n        /* \"EdTechIntegrationHub.sol\":1684:1689  _user */\n      dup4\n        /* \"EdTechIntegrationHub.sol\":1673:1690  userAccess[_user] */\n      0xffffffffffffffffffffffffffffffffffffffff\n      and\n      0xffffffffffffffffffffffffffffffffffffffff\n      and\n      dup2\n      mstore\n      0x20\n      add\n      swap1\n      dup2\n      mstore\n      0x20\n      add\n      0x00\n      keccak256\n        /* \"EdTechIntegrationHub.sol\":1673:1699  userAccess[_user][_toolId] */\n      0x00\n        /* \"EdTechIntegrationHub.sol\":1691:1698  _toolId */\n      dup5\n        /* \"EdTechIntegrationHub.sol\":1673:1699  userAccess[_user][_toolId] */\n      dup2\n      mstore\n      0x20\n      add\n      swap1\n      dup2\n      mstore\n      0x20\n      add\n      0x00\n      keccak256\n      0x00\n      swap1\n      sload\n      swap1\n      0x0100\n      exp\n      swap1\n      div\n      0xff\n      and\n        /* \"EdTechIntegrationHub.sol\":1665:1729  require(userAccess[_user][_toolId], \"User does not have access\") */\n      tag_92\n      jumpi\n      mload(0x40)\n      0x08c379a000000000000000000000000000000000000000000000000000000000\n      dup2\n      mstore\n      0x04\n      add\n      tag_93\n      swap1\n      tag_94\n      jump\t// in\n    tag_93:\n      mload(0x40)\n      dup1\n      swap2\n      sub\n      swap1\n      revert\n    tag_92:\n        /* \"EdTechIntegrationHub.sol\":1769:1774  false */\n      0x00\n        /* \"EdTechIntegrationHub.sol\":1740:1750  userAccess */\n      0x01\n        /* \"EdTechIntegrationHub.sol\":1740:1757  userAccess[_user] */\n      0x00\n        /* \"EdTechIntegrationHub.sol\":1751:1756  _user */\n      dup5\n        /* \"EdTechIntegrationHub.sol\":1740:1757  userAccess[_user] */\n      0xffffffffffffffffffffffffffffffffffffffff\n      and\n      0xffffffffffffffffffffffffffffffffffffffff\n      and\n      dup2\n      mstore\n      0x20\n      add\n      swap1\n      dup2\n      mstore\n      0x20\n      add\n      0x00\n      keccak256\n        /* \"EdTechIntegrationHub.sol\":1740:1766  userAccess[_user][_toolId] */\n      0x00\n        /* \"EdTechIntegrationHub.sol\":1758:1765  _toolId */\n      dup6\n        /* \"EdTechIntegrationHub.sol\":1740:1766  userAccess[_user][_toolId] */\n      dup2\n      mstore\n      0x20\n      add\n      swap1\n      dup2\n      mstore\n      0x20\n      add\n      0x00\n      keccak256\n      0x00\n        /* \"EdTechIntegrationHub.sol\":1740:1774  userAccess[_user][_toolId] = false */\n      0x0100\n      exp\n      dup2\n      sload\n      dup2\n      0xff\n      mul\n      not\n      and\n      swap1\n      dup4\n      iszero\n      iszero\n      mul\n      or\n      swap1\n      sstore\n      pop\n        /* \"EdTechIntegrationHub.sol\":1792:1821  AccessRevoked(_toolId, _user) */\n      0x125883b94692baebecad9f111ed97ffa626523bbbadc6b0ef85ee1b56b9e52d5\n        /* \"EdTechIntegrationHub.sol\":1806:1813  _toolId */\n      dup4\n        /* \"EdTechIntegrationHub.sol\":1815:1820  _user */\n      dup4\n        /* \"EdTechIntegrationHub.sol\":1792:1821  AccessRevoked(_toolId, _user) */\n      mload(0x40)\n      tag_95\n      swap3\n      swap2\n      swap1\n      tag_71\n      jump\t// in\n    tag_95:\n      mload(0x40)\n      dup1\n      swap2\n      sub\n      swap1\n      log1\n        /* \"EdTechIntegrationHub.sol\":1570:1829  function revokeAccess(uint256 _toolId, address _user) public onlyToolOwner(_toolId) {... */\n      pop\n      pop\n      pop\n      jump\t// out\n        /* \"EdTechIntegrationHub.sol\":489:513  uint256 public toolCount */\n    tag_47:\n      sload(0x02)\n      dup2\n      jump\t// out\n        /* \"#utility.yul\":7:82   */\n    tag_96:\n        /* \"#utility.yul\":40:46   */\n      0x00\n        /* \"#utility.yul\":73:75   */\n      0x40\n        /* \"#utility.yul\":67:76   */\n      mload\n        /* \"#utility.yul\":57:76   */\n      swap1\n      pop\n        /* \"#utility.yul\":7:82   */\n      swap1\n      jump\t// out\n        /* \"#utility.yul\":88:205   */\n    tag_97:\n        /* \"#utility.yul\":197:198   */\n      0x00\n        /* \"#utility.yul\":194:195   */\n      dup1\n        /* \"#utility.yul\":187:199   */\n      revert\n        /* \"#utility.yul\":211:328   */\n    tag_98:\n        /* \"#utility.yul\":320:321   */\n      0x00\n        /* \"#utility.yul\":317:318   */\n      dup1\n        /* \"#utility.yul\":310:322   */\n      revert\n        /* \"#utility.yul\":334:411   */\n    tag_99:\n        /* \"#utility.yul\":371:378   */\n      0x00\n        /* \"#utility.yul\":400:405   */\n      dup2\n        /* \"#utility.yul\":389:405   */\n      swap1\n      pop\n        /* \"#utility.yul\":334:411   */\n      swap2\n      swap1\n      pop\n      jump\t// out\n        /* \"#utility.yul\":417:539   */\n    tag_100:\n        /* \"#utility.yul\":490:514   */\n      tag_153\n        /* \"#utility.yul\":508:513   */\n      dup2\n        /* \"#utility.yul\":490:514   */\n      tag_99\n      jump\t// in\n    tag_153:\n        /* \"#utility.yul\":483:488   */\n      dup2\n        /* \"#utility.yul\":480:515   */\n      eq\n        /* \"#utility.yul\":470:533   */\n      tag_154\n      jumpi\n        /* \"#utility.yul\":529:530   */\n      0x00\n        /* \"#utility.yul\":526:527   */\n      dup1\n        /* \"#utility.yul\":519:531   */\n      revert\n        /* \"#utility.yul\":470:533   */\n    tag_154:\n        /* \"#utility.yul\":417:539   */\n      pop\n      jump\t// out\n        /* \"#utility.yul\":545:684   */\n    tag_101:\n        /* \"#utility.yul\":591:596   */\n      0x00\n        /* \"#utility.yul\":629:635   */\n      dup2\n        /* \"#utility.yul\":616:636   */\n      calldataload\n        /* \"#utility.yul\":607:636   */\n      swap1\n      pop\n        /* \"#utility.yul\":645:678   */\n      tag_156\n        /* \"#utility.yul\":672:677   */\n      dup2\n        /* \"#utility.yul\":645:678   */\n      tag_100\n      jump\t// in\n    tag_156:\n        /* \"#utility.yul\":545:684   */\n      swap3\n      swap2\n      pop\n      pop\n      jump\t// out\n        /* \"#utility.yul\":690:1019   */\n    tag_15:\n        /* \"#utility.yul\":749:755   */\n      0x00\n        /* \"#utility.yul\":798:800   */\n      0x20\n        /* \"#utility.yul\":786:795   */\n      dup3\n        /* \"#utility.yul\":777:784   */\n      dup5\n        /* \"#utility.yul\":773:796   */\n      sub\n        /* \"#utility.yul\":769:801   */\n      slt\n        /* \"#utility.yul\":766:885   */\n      iszero\n      tag_158\n      jumpi\n        /* \"#utility.yul\":804:883   */\n      tag_159\n      tag_97\n      jump\t// in\n    tag_159:\n        /* \"#utility.yul\":766:885   */\n    tag_158:\n        /* \"#utility.yul\":924:925   */\n      0x00\n        /* \"#utility.yul\":949:1002   */\n      tag_160\n        /* \"#utility.yul\":994:1001   */\n      dup5\n        /* \"#utility.yul\":985:991   */\n      dup3\n        /* \"#utility.yul\":974:983   */\n      dup6\n        /* \"#utility.yul\":970:992   */\n      add\n        /* \"#utility.yul\":949:1002   */\n      tag_101\n      jump\t// in\n    tag_160:\n        /* \"#utility.yul\":939:1002   */\n      swap2\n      pop\n        /* \"#utility.yul\":895:1012   */\n      pop\n        /* \"#utility.yul\":690:1019   */\n      swap3\n      swap2\n      pop\n      pop\n      jump\t// out\n        /* \"#utility.yul\":1025:1142   */\n    tag_102:\n        /* \"#utility.yul\":1134:1135   */\n      0x00\n        /* \"#utility.yul\":1131:1132   */\n      dup1\n        /* \"#utility.yul\":1124:1136   */\n      revert\n        /* \"#utility.yul\":1148:1265   */\n    tag_103:\n        /* \"#utility.yul\":1257:1258   */\n      0x00\n        /* \"#utility.yul\":1254:1255   */\n      dup1\n        /* \"#utility.yul\":1247:1259   */\n      revert\n        /* \"#utility.yul\":1271:1373   */\n    tag_104:\n        /* \"#utility.yul\":1312:1318   */\n      0x00\n        /* \"#utility.yul\":1363:1365   */\n      0x1f\n        /* \"#utility.yul\":1359:1366   */\n      not\n        /* \"#utility.yul\":1354:1356   */\n      0x1f\n        /* \"#utility.yul\":1347:1352   */\n      dup4\n        /* \"#utility.yul\":1343:1357   */\n      add\n        /* \"#utility.yul\":1339:1367   */\n      and\n        /* \"#utility.yul\":1329:1367   */\n      swap1\n      pop\n        /* \"#utility.yul\":1271:1373   */\n      swap2\n      swap1\n      pop\n      jump\t// out\n        /* \"#utility.yul\":1379:1559   */\n    tag_105:\n        /* \"#utility.yul\":1427:1504   */\n      0x4e487b7100000000000000000000000000000000000000000000000000000000\n        /* \"#utility.yul\":1424:1425   */\n      0x00\n        /* \"#utility.yul\":1417:1505   */\n      mstore\n        /* \"#utility.yul\":1524:1528   */\n      0x41\n        /* \"#utility.yul\":1521:1522   */\n      0x04\n        /* \"#utility.yul\":1514:1529   */\n      mstore\n        /* \"#utility.yul\":1548:1552   */\n      0x24\n        /* \"#utility.yul\":1545:1546   */\n      0x00\n        /* \"#utility.yul\":1538:1553   */\n      revert\n        /* \"#utility.yul\":1565:1846   */\n    tag_106:\n        /* \"#utility.yul\":1648:1675   */\n      tag_166\n        /* \"#utility.yul\":1670:1674   */\n      dup3\n        /* \"#utility.yul\":1648:1675   */\n      tag_104\n      jump\t// in\n    tag_166:\n        /* \"#utility.yul\":1640:1646   */\n      dup2\n        /* \"#utility.yul\":1636:1676   */\n      add\n        /* \"#utility.yul\":1778:1784   */\n      dup2\n        /* \"#utility.yul\":1766:1776   */\n      dup2\n        /* \"#utility.yul\":1763:1785   */\n      lt\n        /* \"#utility.yul\":1742:1760   */\n      0xffffffffffffffff\n        /* \"#utility.yul\":1730:1740   */\n      dup3\n        /* \"#utility.yul\":1727:1761   */\n      gt\n        /* \"#utility.yul\":1724:1786   */\n      or\n        /* \"#utility.yul\":1721:1809   */\n      iszero\n      tag_167\n      jumpi\n        /* \"#utility.yul\":1789:1807   */\n      tag_168\n      tag_105\n      jump\t// in\n    tag_168:\n        /* \"#utility.yul\":1721:1809   */\n    tag_167:\n        /* \"#utility.yul\":1829:1839   */\n      dup1\n        /* \"#utility.yul\":1825:1827   */\n      0x40\n        /* \"#utility.yul\":1818:1840   */\n      mstore\n        /* \"#utility.yul\":1608:1846   */\n      pop\n        /* \"#utility.yul\":1565:1846   */\n      pop\n      pop\n      jump\t// out\n        /* \"#utility.yul\":1852:1981   */\n    tag_107:\n        /* \"#utility.yul\":1886:1892   */\n      0x00\n        /* \"#utility.yul\":1913:1933   */\n      tag_170\n      tag_96\n      jump\t// in\n    tag_170:\n        /* \"#utility.yul\":1903:1933   */\n      swap1\n      pop\n        /* \"#utility.yul\":1942:1975   */\n      tag_171\n        /* \"#utility.yul\":1970:1974   */\n      dup3\n        /* \"#utility.yul\":1962:1968   */\n      dup3\n        /* \"#utility.yul\":1942:1975   */\n      tag_106\n      jump\t// in\n    tag_171:\n        /* \"#utility.yul\":1852:1981   */\n      swap2\n      swap1\n      pop\n      jump\t// out\n        /* \"#utility.yul\":1987:2295   */\n    tag_108:\n        /* \"#utility.yul\":2049:2053   */\n      0x00\n        /* \"#utility.yul\":2139:2157   */\n      0xffffffffffffffff\n        /* \"#utility.yul\":2131:2137   */\n      dup3\n        /* \"#utility.yul\":2128:2158   */\n      gt\n        /* \"#utility.yul\":2125:2181   */\n      iszero\n      tag_173\n      jumpi\n        /* \"#utility.yul\":2161:2179   */\n      tag_174\n      tag_105\n      jump\t// in\n    tag_174:\n        /* \"#utility.yul\":2125:2181   */\n    tag_173:\n        /* \"#utility.yul\":2199:2228   */\n      tag_175\n        /* \"#utility.yul\":2221:2227   */\n      dup3\n        /* \"#utility.yul\":2199:2228   */\n      tag_104\n      jump\t// in\n    tag_175:\n        /* \"#utility.yul\":2191:2228   */\n      swap1\n      pop\n        /* \"#utility.yul\":2283:2287   */\n      0x20\n        /* \"#utility.yul\":2277:2281   */\n      dup2\n        /* \"#utility.yul\":2273:2288   */\n      add\n        /* \"#utility.yul\":2265:2288   */\n      swap1\n      pop\n        /* \"#utility.yul\":1987:2295   */\n      swap2\n      swap1\n      pop\n      jump\t// out\n        /* \"#utility.yul\":2301:2449   */\n    tag_109:\n        /* \"#utility.yul\":2399:2405   */\n      dup3\n        /* \"#utility.yul\":2394:2397   */\n      dup2\n        /* \"#utility.yul\":2389:2392   */\n      dup4\n        /* \"#utility.yul\":2376:2406   */\n      calldatacopy\n        /* \"#utility.yul\":2440:2441   */\n      0x00\n        /* \"#utility.yul\":2431:2437   */\n      dup4\n        /* \"#utility.yul\":2426:2429   */\n      dup4\n        /* \"#utility.yul\":2422:2438   */\n      add\n        /* \"#utility.yul\":2415:2442   */\n      mstore\n        /* \"#utility.yul\":2301:2449   */\n      pop\n      pop\n      pop\n      jump\t// out\n        /* \"#utility.yul\":2455:2880   */\n    tag_110:\n        /* \"#utility.yul\":2533:2538   */\n      0x00\n        /* \"#utility.yul\":2558:2624   */\n      tag_178\n        /* \"#utility.yul\":2574:2623   */\n      tag_179\n        /* \"#utility.yul\":2616:2622   */\n      dup5\n        /* \"#utility.yul\":2574:2623   */\n      tag_108\n      jump\t// in\n    tag_179:\n        /* \"#utility.yul\":2558:2624   */\n      tag_107\n      jump\t// in\n    tag_178:\n        /* \"#utility.yul\":2549:2624   */\n      swap1\n      pop\n        /* \"#utility.yul\":2647:2653   */\n      dup3\n        /* \"#utility.yul\":2640:2645   */\n      dup2\n        /* \"#utility.yul\":2633:2654   */\n      mstore\n        /* \"#utility.yul\":2685:2689   */\n      0x20\n        /* \"#utility.yul\":2678:2683   */\n      dup2\n        /* \"#utility.yul\":2674:2690   */\n      add\n        /* \"#utility.yul\":2723:2726   */\n      dup5\n        /* \"#utility.yul\":2714:2720   */\n      dup5\n        /* \"#utility.yul\":2709:2712   */\n      dup5\n        /* \"#utility.yul\":2705:2721   */\n      add\n        /* \"#utility.yul\":2702:2727   */\n      gt\n        /* \"#utility.yul\":2699:2811   */\n      iszero\n      tag_180\n      jumpi\n        /* \"#utility.yul\":2730:2809   */\n      tag_181\n      tag_103\n      jump\t// in\n    tag_181:\n        /* \"#utility.yul\":2699:2811   */\n    tag_180:\n        /* \"#utility.yul\":2820:2874   */\n      tag_182\n        /* \"#utility.yul\":2867:2873   */\n      dup5\n        /* \"#utility.yul\":2862:2865   */\n      dup3\n        /* \"#utility.yul\":2857:2860   */\n      dup6\n        /* \"#utility.yul\":2820:2874   */\n      tag_109\n      jump\t// in\n    tag_182:\n        /* \"#utility.yul\":2539:2880   */\n      pop\n        /* \"#utility.yul\":2455:2880   */\n      swap4\n      swap3\n      pop\n      pop\n      pop\n      jump\t// out\n        /* \"#utility.yul\":2900:3240   */\n    tag_111:\n        /* \"#utility.yul\":2956:2961   */\n      0x00\n        /* \"#utility.yul\":3005:3008   */\n      dup3\n        /* \"#utility.yul\":2998:3002   */\n      0x1f\n        /* \"#utility.yul\":2990:2996   */\n      dup4\n        /* \"#utility.yul\":2986:3003   */\n      add\n        /* \"#utility.yul\":2982:3009   */\n      slt\n        /* \"#utility.yul\":2972:3094   */\n      tag_184\n      jumpi\n        /* \"#utility.yul\":3013:3092   */\n      tag_185\n      tag_102\n      jump\t// in\n    tag_185:\n        /* \"#utility.yul\":2972:3094   */\n    tag_184:\n        /* \"#utility.yul\":3130:3136   */\n      dup2\n        /* \"#utility.yul\":3117:3137   */\n      calldataload\n        /* \"#utility.yul\":3155:3234   */\n      tag_186\n        /* \"#utility.yul\":3230:3233   */\n      dup5\n        /* \"#utility.yul\":3222:3228   */\n      dup3\n        /* \"#utility.yul\":3215:3219   */\n      0x20\n        /* \"#utility.yul\":3207:3213   */\n      dup7\n        /* \"#utility.yul\":3203:3220   */\n      add\n        /* \"#utility.yul\":3155:3234   */\n      tag_110\n      jump\t// in\n    tag_186:\n        /* \"#utility.yul\":3146:3234   */\n      swap2\n      pop\n        /* \"#utility.yul\":2962:3240   */\n      pop\n        /* \"#utility.yul\":2900:3240   */\n      swap3\n      swap2\n      pop\n      pop\n      jump\t// out\n        /* \"#utility.yul\":3246:4080   */\n    tag_19:\n        /* \"#utility.yul\":3334:3340   */\n      0x00\n        /* \"#utility.yul\":3342:3348   */\n      dup1\n        /* \"#utility.yul\":3391:3393   */\n      0x40\n        /* \"#utility.yul\":3379:3388   */\n      dup4\n        /* \"#utility.yul\":3370:3377   */\n      dup6\n        /* \"#utility.yul\":3366:3389   */\n      sub\n        /* \"#utility.yul\":3362:3394   */\n      slt\n        /* \"#utility.yul\":3359:3478   */\n      iszero\n      tag_188\n      jumpi\n        /* \"#utility.yul\":3397:3476   */\n      tag_189\n      tag_97\n      jump\t// in\n    tag_189:\n        /* \"#utility.yul\":3359:3478   */\n    tag_188:\n        /* \"#utility.yul\":3545:3546   */\n      0x00\n        /* \"#utility.yul\":3534:3543   */\n      dup4\n        /* \"#utility.yul\":3530:3547   */\n      add\n        /* \"#utility.yul\":3517:3548   */\n      calldataload\n        /* \"#utility.yul\":3575:3593   */\n      0xffffffffffffffff\n        /* \"#utility.yul\":3567:3573   */\n      dup2\n        /* \"#utility.yul\":3564:3594   */\n      gt\n        /* \"#utility.yul\":3561:3678   */\n      iszero\n      tag_190\n      jumpi\n        /* \"#utility.yul\":3597:3676   */\n      tag_191\n      tag_98\n      jump\t// in\n    tag_191:\n        /* \"#utility.yul\":3561:3678   */\n    tag_190:\n        /* \"#utility.yul\":3702:3765   */\n      tag_192\n        /* \"#utility.yul\":3757:3764   */\n      dup6\n        /* \"#utility.yul\":3748:3754   */\n      dup3\n        /* \"#utility.yul\":3737:3746   */\n      dup7\n        /* \"#utility.yul\":3733:3755   */\n      add\n        /* \"#utility.yul\":3702:3765   */\n      tag_111\n      jump\t// in\n    tag_192:\n        /* \"#utility.yul\":3692:3765   */\n      swap3\n      pop\n        /* \"#utility.yul\":3488:3775   */\n      pop\n        /* \"#utility.yul\":3842:3844   */\n      0x20\n        /* \"#utility.yul\":3831:3840   */\n      dup4\n        /* \"#utility.yul\":3827:3845   */\n      add\n        /* \"#utility.yul\":3814:3846   */\n      calldataload\n        /* \"#utility.yul\":3873:3891   */\n      0xffffffffffffffff\n        /* \"#utility.yul\":3865:3871   */\n      dup2\n        /* \"#utility.yul\":3862:3892   */\n      gt\n        /* \"#utility.yul\":3859:3976   */\n      iszero\n      tag_193\n      jumpi\n        /* \"#utility.yul\":3895:3974   */\n      tag_194\n      tag_98\n      jump\t// in\n    tag_194:\n        /* \"#utility.yul\":3859:3976   */\n    tag_193:\n        /* \"#utility.yul\":4000:4063   */\n      tag_195\n        /* \"#utility.yul\":4055:4062   */\n      dup6\n        /* \"#utility.yul\":4046:4052   */\n      dup3\n        /* \"#utility.yul\":4035:4044   */\n      dup7\n        /* \"#utility.yul\":4031:4053   */\n      add\n        /* \"#utility.yul\":4000:4063   */\n      tag_111\n      jump\t// in\n    tag_195:\n        /* \"#utility.yul\":3990:4063   */\n      swap2\n      pop\n        /* \"#utility.yul\":3785:4073   */\n      pop\n        /* \"#utility.yul\":3246:4080   */\n      swap3\n      pop\n      swap3\n      swap1\n      pop\n      jump\t// out\n        /* \"#utility.yul\":4086:4212   */\n    tag_112:\n        /* \"#utility.yul\":4123:4130   */\n      0x00\n        /* \"#utility.yul\":4163:4205   */\n      0xffffffffffffffffffffffffffffffffffffffff\n        /* \"#utility.yul\":4156:4161   */\n      dup3\n        /* \"#utility.yul\":4152:4206   */\n      and\n        /* \"#utility.yul\":4141:4206   */\n      swap1\n      pop\n        /* \"#utility.yul\":4086:4212   */\n      swap2\n      swap1\n      pop\n      jump\t// out\n        /* \"#utility.yul\":4218:4314   */\n    tag_113:\n        /* \"#utility.yul\":4255:4262   */\n      0x00\n        /* \"#utility.yul\":4284:4308   */\n      tag_198\n        /* \"#utility.yul\":4302:4307   */\n      dup3\n        /* \"#utility.yul\":4284:4308   */\n      tag_112\n      jump\t// in\n    tag_198:\n        /* \"#utility.yul\":4273:4308   */\n      swap1\n      pop\n        /* \"#utility.yul\":4218:4314   */\n      swap2\n      swap1\n      pop\n      jump\t// out\n        /* \"#utility.yul\":4320:4442   */\n    tag_114:\n        /* \"#utility.yul\":4393:4417   */\n      tag_200\n        /* \"#utility.yul\":4411:4416   */\n      dup2\n        /* \"#utility.yul\":4393:4417   */\n      tag_113\n      jump\t// in\n    tag_200:\n        /* \"#utility.yul\":4386:4391   */\n      dup2\n        /* \"#utility.yul\":4383:4418   */\n      eq\n        /* \"#utility.yul\":4373:4436   */\n      tag_201\n      jumpi\n        /* \"#utility.yul\":4432:4433   */\n      0x00\n        /* \"#utility.yul\":4429:4430   */\n      dup1\n        /* \"#utility.yul\":4422:4434   */\n      revert\n        /* \"#utility.yul\":4373:4436   */\n    tag_201:\n        /* \"#utility.yul\":4320:4442   */\n      pop\n      jump\t// out\n        /* \"#utility.yul\":4448:4587   */\n    tag_115:\n        /* \"#utility.yul\":4494:4499   */\n      0x00\n        /* \"#utility.yul\":4532:4538   */\n      dup2\n        /* \"#utility.yul\":4519:4539   */\n      calldataload\n        /* \"#utility.yul\":4510:4539   */\n      swap1\n      pop\n        /* \"#utility.yul\":4548:4581   */\n      tag_203\n        /* \"#utility.yul\":4575:4580   */\n      dup2\n        /* \"#utility.yul\":4548:4581   */\n      tag_114\n      jump\t// in\n    tag_203:\n        /* \"#utility.yul\":4448:4587   */\n      swap3\n      swap2\n      pop\n      pop\n      jump\t// out\n        /* \"#utility.yul\":4593:5067   */\n    tag_23:\n        /* \"#utility.yul\":4661:4667   */\n      0x00\n        /* \"#utility.yul\":4669:4675   */\n      dup1\n        /* \"#utility.yul\":4718:4720   */\n      0x40\n        /* \"#utility.yul\":4706:4715   */\n      dup4\n        /* \"#utility.yul\":4697:4704   */\n      dup6\n        /* \"#utility.yul\":4693:4716   */\n      sub\n        /* \"#utility.yul\":4689:4721   */\n      slt\n        /* \"#utility.yul\":4686:4805   */\n      iszero\n      tag_205\n      jumpi\n        /* \"#utility.yul\":4724:4803   */\n      tag_206\n      tag_97\n      jump\t// in\n    tag_206:\n        /* \"#utility.yul\":4686:4805   */\n    tag_205:\n        /* \"#utility.yul\":4844:4845   */\n      0x00\n        /* \"#utility.yul\":4869:4922   */\n      tag_207\n        /* \"#utility.yul\":4914:4921   */\n      dup6\n        /* \"#utility.yul\":4905:4911   */\n      dup3\n        /* \"#utility.yul\":4894:4903   */\n      dup7\n        /* \"#utility.yul\":4890:4912   */\n      add\n        /* \"#utility.yul\":4869:4922   */\n      tag_101\n      jump\t// in\n    tag_207:\n        /* \"#utility.yul\":4859:4922   */\n      swap3\n      pop\n        /* \"#utility.yul\":4815:4932   */\n      pop\n        /* \"#utility.yul\":4971:4973   */\n      0x20\n        /* \"#utility.yul\":4997:5050   */\n      tag_208\n        /* \"#utility.yul\":5042:5049   */\n      dup6\n        /* \"#utility.yul\":5033:5039   */\n      dup3\n        /* \"#utility.yul\":5022:5031   */\n      dup7\n        /* \"#utility.yul\":5018:5040   */\n      add\n        /* \"#utility.yul\":4997:5050   */\n      tag_115\n      jump\t// in\n    tag_208:\n        /* \"#utility.yul\":4987:5050   */\n      swap2\n      pop\n        /* \"#utility.yul\":4942:5060   */\n      pop\n        /* \"#utility.yul\":4593:5067   */\n      swap3\n      pop\n      swap3\n      swap1\n      pop\n      jump\t// out\n        /* \"#utility.yul\":5073:5172   */\n    tag_116:\n        /* \"#utility.yul\":5125:5131   */\n      0x00\n        /* \"#utility.yul\":5159:5164   */\n      dup2\n        /* \"#utility.yul\":5153:5165   */\n      mload\n        /* \"#utility.yul\":5143:5165   */\n      swap1\n      pop\n        /* \"#utility.yul\":5073:5172   */\n      swap2\n      swap1\n      pop\n      jump\t// out\n        /* \"#utility.yul\":5178:5347   */\n    tag_117:\n        /* \"#utility.yul\":5262:5273   */\n      0x00\n        /* \"#utility.yul\":5296:5302   */\n      dup3\n        /* \"#utility.yul\":5291:5294   */\n      dup3\n        /* \"#utility.yul\":5284:5303   */\n      mstore\n        /* \"#utility.yul\":5336:5340   */\n      0x20\n        /* \"#utility.yul\":5331:5334   */\n      dup3\n        /* \"#utility.yul\":5327:5341   */\n      add\n        /* \"#utility.yul\":5312:5341   */\n      swap1\n      pop\n        /* \"#utility.yul\":5178:5347   */\n      swap3\n      swap2\n      pop\n      pop\n      jump\t// out\n        /* \"#utility.yul\":5353:5492   */\n    tag_118:\n        /* \"#utility.yul\":5442:5448   */\n      dup3\n        /* \"#utility.yul\":5437:5440   */\n      dup2\n        /* \"#utility.yul\":5432:5435   */\n      dup4\n        /* \"#utility.yul\":5426:5449   */\n      mcopy\n        /* \"#utility.yul\":5483:5484   */\n      0x00\n        /* \"#utility.yul\":5474:5480   */\n      dup4\n        /* \"#utility.yul\":5469:5472   */\n      dup4\n        /* \"#utility.yul\":5465:5481   */\n      add\n        /* \"#utility.yul\":5458:5485   */\n      mstore\n        /* \"#utility.yul\":5353:5492   */\n      pop\n      pop\n      pop\n      jump\t// out\n        /* \"#utility.yul\":5498:5875   */\n    tag_119:\n        /* \"#utility.yul\":5586:5589   */\n      0x00\n        /* \"#utility.yul\":5614:5653   */\n      tag_213\n        /* \"#utility.yul\":5647:5652   */\n      dup3\n        /* \"#utility.yul\":5614:5653   */\n      tag_116\n      jump\t// in\n    tag_213:\n        /* \"#utility.yul\":5669:5740   */\n      tag_214\n        /* \"#utility.yul\":5733:5739   */\n      dup2\n        /* \"#utility.yul\":5728:5731   */\n      dup6\n        /* \"#utility.yul\":5669:5740   */\n      tag_117\n      jump\t// in\n    tag_214:\n        /* \"#utility.yul\":5662:5740   */\n      swap4\n      pop\n        /* \"#utility.yul\":5749:5814   */\n      tag_215\n        /* \"#utility.yul\":5807:5813   */\n      dup2\n        /* \"#utility.yul\":5802:5805   */\n      dup6\n        /* \"#utility.yul\":5795:5799   */\n      0x20\n        /* \"#utility.yul\":5788:5793   */\n      dup7\n        /* \"#utility.yul\":5784:5800   */\n      add\n        /* \"#utility.yul\":5749:5814   */\n      tag_118\n      jump\t// in\n    tag_215:\n        /* \"#utility.yul\":5839:5868   */\n      tag_216\n        /* \"#utility.yul\":5861:5867   */\n      dup2\n        /* \"#utility.yul\":5839:5868   */\n      tag_104\n      jump\t// in\n    tag_216:\n        /* \"#utility.yul\":5834:5837   */\n      dup5\n        /* \"#utility.yul\":5830:5869   */\n      add\n        /* \"#utility.yul\":5823:5869   */\n      swap2\n      pop\n        /* \"#utility.yul\":5590:5875   */\n      pop\n        /* \"#utility.yul\":5498:5875   */\n      swap3\n      swap2\n      pop\n      pop\n      jump\t// out\n        /* \"#utility.yul\":5881:5999   */\n    tag_120:\n        /* \"#utility.yul\":5968:5992   */\n      tag_218\n        /* \"#utility.yul\":5986:5991   */\n      dup2\n        /* \"#utility.yul\":5968:5992   */\n      tag_113\n      jump\t// in\n    tag_218:\n        /* \"#utility.yul\":5963:5966   */\n      dup3\n        /* \"#utility.yul\":5956:5993   */\n      mstore\n        /* \"#utility.yul\":5881:5999   */\n      pop\n      pop\n      jump\t// out\n        /* \"#utility.yul\":6005:6095   */\n    tag_121:\n        /* \"#utility.yul\":6039:6046   */\n      0x00\n        /* \"#utility.yul\":6082:6087   */\n      dup2\n        /* \"#utility.yul\":6075:6088   */\n      iszero\n        /* \"#utility.yul\":6068:6089   */\n      iszero\n        /* \"#utility.yul\":6057:6089   */\n      swap1\n      pop\n        /* \"#utility.yul\":6005:6095   */\n      swap2\n      swap1\n      pop\n      jump\t// out\n        /* \"#utility.yul\":6101:6210   */\n    tag_122:\n        /* \"#utility.yul\":6182:6203   */\n      tag_221\n        /* \"#utility.yul\":6197:6202   */\n      dup2\n        /* \"#utility.yul\":6182:6203   */\n      tag_121\n      jump\t// in\n    tag_221:\n        /* \"#utility.yul\":6177:6180   */\n      dup3\n        /* \"#utility.yul\":6170:6204   */\n      mstore\n        /* \"#utility.yul\":6101:6210   */\n      pop\n      pop\n      jump\t// out\n        /* \"#utility.yul\":6216:6939   */\n    tag_32:\n        /* \"#utility.yul\":6427:6431   */\n      0x00\n        /* \"#utility.yul\":6465:6468   */\n      0x80\n        /* \"#utility.yul\":6454:6463   */\n      dup3\n        /* \"#utility.yul\":6450:6469   */\n      add\n        /* \"#utility.yul\":6442:6469   */\n      swap1\n      pop\n        /* \"#utility.yul\":6515:6524   */\n      dup2\n        /* \"#utility.yul\":6509:6513   */\n      dup2\n        /* \"#utility.yul\":6505:6525   */\n      sub\n        /* \"#utility.yul\":6501:6502   */\n      0x00\n        /* \"#utility.yul\":6490:6499   */\n      dup4\n        /* \"#utility.yul\":6486:6503   */\n      add\n        /* \"#utility.yul\":6479:6526   */\n      mstore\n        /* \"#utility.yul\":6543:6621   */\n      tag_223\n        /* \"#utility.yul\":6616:6620   */\n      dup2\n        /* \"#utility.yul\":6607:6613   */\n      dup8\n        /* \"#utility.yul\":6543:6621   */\n      tag_119\n      jump\t// in\n    tag_223:\n        /* \"#utility.yul\":6535:6621   */\n      swap1\n      pop\n        /* \"#utility.yul\":6668:6677   */\n      dup2\n        /* \"#utility.yul\":6662:6666   */\n      dup2\n        /* \"#utility.yul\":6658:6678   */\n      sub\n        /* \"#utility.yul\":6653:6655   */\n      0x20\n        /* \"#utility.yul\":6642:6651   */\n      dup4\n        /* \"#utility.yul\":6638:6656   */\n      add\n        /* \"#utility.yul\":6631:6679   */\n      mstore\n        /* \"#utility.yul\":6696:6774   */\n      tag_224\n        /* \"#utility.yul\":6769:6773   */\n      dup2\n        /* \"#utility.yul\":6760:6766   */\n      dup7\n        /* \"#utility.yul\":6696:6774   */\n      tag_119\n      jump\t// in\n    tag_224:\n        /* \"#utility.yul\":6688:6774   */\n      swap1\n      pop\n        /* \"#utility.yul\":6784:6856   */\n      tag_225\n        /* \"#utility.yul\":6852:6854   */\n      0x40\n        /* \"#utility.yul\":6841:6850   */\n      dup4\n        /* \"#utility.yul\":6837:6855   */\n      add\n        /* \"#utility.yul\":6828:6834   */\n      dup6\n        /* \"#utility.yul\":6784:6856   */\n      tag_120\n      jump\t// in\n    tag_225:\n        /* \"#utility.yul\":6866:6932   */\n      tag_226\n        /* \"#utility.yul\":6928:6930   */\n      0x60\n        /* \"#utility.yul\":6917:6926   */\n      dup4\n        /* \"#utility.yul\":6913:6931   */\n      add\n        /* \"#utility.yul\":6904:6910   */\n      dup5\n        /* \"#utility.yul\":6866:6932   */\n      tag_122\n      jump\t// in\n    tag_226:\n        /* \"#utility.yul\":6216:6939   */\n      swap6\n      swap5\n      pop\n      pop\n      pop\n      pop\n      pop\n      jump\t// out\n        /* \"#utility.yul\":6945:7419   */\n    tag_35:\n        /* \"#utility.yul\":7013:7019   */\n      0x00\n        /* \"#utility.yul\":7021:7027   */\n      dup1\n        /* \"#utility.yul\":7070:7072   */\n      0x40\n        /* \"#utility.yul\":7058:7067   */\n      dup4\n        /* \"#utility.yul\":7049:7056   */\n      dup6\n        /* \"#utility.yul\":7045:7068   */\n      sub\n        /* \"#utility.yul\":7041:7073   */\n      slt\n        /* \"#utility.yul\":7038:7157   */\n      iszero\n      tag_228\n      jumpi\n        /* \"#utility.yul\":7076:7155   */\n      tag_229\n      tag_97\n      jump\t// in\n    tag_229:\n        /* \"#utility.yul\":7038:7157   */\n    tag_228:\n        /* \"#utility.yul\":7196:7197   */\n      0x00\n        /* \"#utility.yul\":7221:7274   */\n      tag_230\n        /* \"#utility.yul\":7266:7273   */\n      dup6\n        /* \"#utility.yul\":7257:7263   */\n      dup3\n        /* \"#utility.yul\":7246:7255   */\n      dup7\n        /* \"#utility.yul\":7242:7264   */\n      add\n        /* \"#utility.yul\":7221:7274   */\n      tag_115\n      jump\t// in\n    tag_230:\n        /* \"#utility.yul\":7211:7274   */\n      swap3\n      pop\n        /* \"#utility.yul\":7167:7284   */\n      pop\n        /* \"#utility.yul\":7323:7325   */\n      0x20\n        /* \"#utility.yul\":7349:7402   */\n      tag_231\n        /* \"#utility.yul\":7394:7401   */\n      dup6\n        /* \"#utility.yul\":7385:7391   */\n      dup3\n        /* \"#utility.yul\":7374:7383   */\n      dup7\n        /* \"#utility.yul\":7370:7392   */\n      add\n        /* \"#utility.yul\":7349:7402   */\n      tag_101\n      jump\t// in\n    tag_231:\n        /* \"#utility.yul\":7339:7402   */\n      swap2\n      pop\n        /* \"#utility.yul\":7294:7412   */\n      pop\n        /* \"#utility.yul\":6945:7419   */\n      swap3\n      pop\n      swap3\n      swap1\n      pop\n      jump\t// out\n        /* \"#utility.yul\":7425:7635   */\n    tag_38:\n        /* \"#utility.yul\":7512:7516   */\n      0x00\n        /* \"#utility.yul\":7550:7552   */\n      0x20\n        /* \"#utility.yul\":7539:7548   */\n      dup3\n        /* \"#utility.yul\":7535:7553   */\n      add\n        /* \"#utility.yul\":7527:7553   */\n      swap1\n      pop\n        /* \"#utility.yul\":7563:7628   */\n      tag_233\n        /* \"#utility.yul\":7625:7626   */\n      0x00\n        /* \"#utility.yul\":7614:7623   */\n      dup4\n        /* \"#utility.yul\":7610:7627   */\n      add\n        /* \"#utility.yul\":7601:7607   */\n      dup5\n        /* \"#utility.yul\":7563:7628   */\n      tag_122\n      jump\t// in\n    tag_233:\n        /* \"#utility.yul\":7425:7635   */\n      swap3\n      swap2\n      pop\n      pop\n      jump\t// out\n        /* \"#utility.yul\":7641:7759   */\n    tag_123:\n        /* \"#utility.yul\":7728:7752   */\n      tag_235\n        /* \"#utility.yul\":7746:7751   */\n      dup2\n        /* \"#utility.yul\":7728:7752   */\n      tag_99\n      jump\t// in\n    tag_235:\n        /* \"#utility.yul\":7723:7726   */\n      dup3\n        /* \"#utility.yul\":7716:7753   */\n      mstore\n        /* \"#utility.yul\":7641:7759   */\n      pop\n      pop\n      jump\t// out\n        /* \"#utility.yul\":7765:7987   */\n    tag_49:\n        /* \"#utility.yul\":7858:7862   */\n      0x00\n        /* \"#utility.yul\":7896:7898   */\n      0x20\n        /* \"#utility.yul\":7885:7894   */\n      dup3\n        /* \"#utility.yul\":7881:7899   */\n      add\n        /* \"#utility.yul\":7873:7899   */\n      swap1\n      pop\n        /* \"#utility.yul\":7909:7980   */\n      tag_237\n        /* \"#utility.yul\":7977:7978   */\n      0x00\n        /* \"#utility.yul\":7966:7975   */\n      dup4\n        /* \"#utility.yul\":7962:7979   */\n      add\n        /* \"#utility.yul\":7953:7959   */\n      dup5\n        /* \"#utility.yul\":7909:7980   */\n      tag_123\n      jump\t// in\n    tag_237:\n        /* \"#utility.yul\":7765:7987   */\n      swap3\n      swap2\n      pop\n      pop\n      jump\t// out\n        /* \"#utility.yul\":7993:8161   */\n    tag_124:\n        /* \"#utility.yul\":8133:8153   */\n      0x4e6f742074686520746f6f6c206f776e65720000000000000000000000000000\n        /* \"#utility.yul\":8129:8130   */\n      0x00\n        /* \"#utility.yul\":8121:8127   */\n      dup3\n        /* \"#utility.yul\":8117:8131   */\n      add\n        /* \"#utility.yul\":8110:8154   */\n      mstore\n        /* \"#utility.yul\":7993:8161   */\n      pop\n      jump\t// out\n        /* \"#utility.yul\":8167:8533   */\n    tag_125:\n        /* \"#utility.yul\":8309:8312   */\n      0x00\n        /* \"#utility.yul\":8330:8397   */\n      tag_240\n        /* \"#utility.yul\":8394:8396   */\n      0x12\n        /* \"#utility.yul\":8389:8392   */\n      dup4\n        /* \"#utility.yul\":8330:8397   */\n      tag_117\n      jump\t// in\n    tag_240:\n        /* \"#utility.yul\":8323:8397   */\n      swap2\n      pop\n        /* \"#utility.yul\":8406:8499   */\n      tag_241\n        /* \"#utility.yul\":8495:8498   */\n      dup3\n        /* \"#utility.yul\":8406:8499   */\n      tag_124\n      jump\t// in\n    tag_241:\n        /* \"#utility.yul\":8524:8526   */\n      0x20\n        /* \"#utility.yul\":8519:8522   */\n      dup3\n        /* \"#utility.yul\":8515:8527   */\n      add\n        /* \"#utility.yul\":8508:8527   */\n      swap1\n      pop\n        /* \"#utility.yul\":8167:8533   */\n      swap2\n      swap1\n      pop\n      jump\t// out\n        /* \"#utility.yul\":8539:8958   */\n    tag_53:\n        /* \"#utility.yul\":8705:8709   */\n      0x00\n        /* \"#utility.yul\":8743:8745   */\n      0x20\n        /* \"#utility.yul\":8732:8741   */\n      dup3\n        /* \"#utility.yul\":8728:8746   */\n      add\n        /* \"#utility.yul\":8720:8746   */\n      swap1\n      pop\n        /* \"#utility.yul\":8792:8801   */\n      dup2\n        /* \"#utility.yul\":8786:8790   */\n      dup2\n        /* \"#utility.yul\":8782:8802   */\n      sub\n        /* \"#utility.yul\":8778:8779   */\n      0x00\n        /* \"#utility.yul\":8767:8776   */\n      dup4\n        /* \"#utility.yul\":8763:8780   */\n      add\n        /* \"#utility.yul\":8756:8803   */\n      mstore\n        /* \"#utility.yul\":8820:8951   */\n      tag_243\n        /* \"#utility.yul\":8946:8950   */\n      dup2\n        /* \"#utility.yul\":8820:8951   */\n      tag_125\n      jump\t// in\n    tag_243:\n        /* \"#utility.yul\":8812:8951   */\n      swap1\n      pop\n        /* \"#utility.yul\":8539:8958   */\n      swap2\n      swap1\n      pop\n      jump\t// out\n        /* \"#utility.yul\":8964:9144   */\n    tag_126:\n        /* \"#utility.yul\":9012:9089   */\n      0x4e487b7100000000000000000000000000000000000000000000000000000000\n        /* \"#utility.yul\":9009:9010   */\n      0x00\n        /* \"#utility.yul\":9002:9090   */\n      mstore\n        /* \"#utility.yul\":9109:9113   */\n      0x11\n        /* \"#utility.yul\":9106:9107   */\n      0x04\n        /* \"#utility.yul\":9099:9114   */\n      mstore\n        /* \"#utility.yul\":9133:9137   */\n      0x24\n        /* \"#utility.yul\":9130:9131   */\n      0x00\n        /* \"#utility.yul\":9123:9138   */\n      revert\n        /* \"#utility.yul\":9150:9383   */\n    tag_57:\n        /* \"#utility.yul\":9189:9192   */\n      0x00\n        /* \"#utility.yul\":9212:9236   */\n      tag_246\n        /* \"#utility.yul\":9230:9235   */\n      dup3\n        /* \"#utility.yul\":9212:9236   */\n      tag_99\n      jump\t// in\n    tag_246:\n        /* \"#utility.yul\":9203:9236   */\n      swap2\n      pop\n        /* \"#utility.yul\":9258:9324   */\n      0xffffffffffffffffffffffffffffffffffffffffffffffffffffffffffffffff\n        /* \"#utility.yul\":9251:9256   */\n      dup3\n        /* \"#utility.yul\":9248:9325   */\n      sub\n        /* \"#utility.yul\":9245:9348   */\n      tag_247\n      jumpi\n        /* \"#utility.yul\":9328:9346   */\n      tag_248\n      tag_126\n      jump\t// in\n    tag_248:\n        /* \"#utility.yul\":9245:9348   */\n    tag_247:\n        /* \"#utility.yul\":9375:9376   */\n      0x01\n        /* \"#utility.yul\":9368:9373   */\n      dup3\n        /* \"#utility.yul\":9364:9377   */\n      add\n        /* \"#utility.yul\":9357:9377   */\n      swap1\n      pop\n        /* \"#utility.yul\":9150:9383   */\n      swap2\n      swap1\n      pop\n      jump\t// out\n        /* \"#utility.yul\":9389:9569   */\n    tag_127:\n        /* \"#utility.yul\":9437:9514   */\n      0x4e487b7100000000000000000000000000000000000000000000000000000000\n        /* \"#utility.yul\":9434:9435   */\n      0x00\n        /* \"#utility.yul\":9427:9515   */\n      mstore\n        /* \"#utility.yul\":9534:9538   */\n      0x22\n        /* \"#utility.yul\":9531:9532   */\n      0x04\n        /* \"#utility.yul\":9524:9539   */\n      mstore\n        /* \"#utility.yul\":9558:9562   */\n      0x24\n        /* \"#utility.yul\":9555:9556   */\n      0x00\n        /* \"#utility.yul\":9548:9563   */\n      revert\n        /* \"#utility.yul\":9575:9895   */\n    tag_77:\n        /* \"#utility.yul\":9619:9625   */\n      0x00\n        /* \"#utility.yul\":9656:9657   */\n      0x02\n        /* \"#utility.yul\":9650:9654   */\n      dup3\n        /* \"#utility.yul\":9646:9658   */\n      div\n        /* \"#utility.yul\":9636:9658   */\n      swap1\n      pop\n        /* \"#utility.yul\":9703:9704   */\n      0x01\n        /* \"#utility.yul\":9697:9701   */\n      dup3\n        /* \"#utility.yul\":9693:9705   */\n      and\n        /* \"#utility.yul\":9724:9742   */\n      dup1\n        /* \"#utility.yul\":9714:9795   */\n      tag_251\n      jumpi\n        /* \"#utility.yul\":9780:9784   */\n      0x7f\n        /* \"#utility.yul\":9772:9778   */\n      dup3\n        /* \"#utility.yul\":9768:9785   */\n      and\n        /* \"#utility.yul\":9758:9785   */\n      swap2\n      pop\n        /* \"#utility.yul\":9714:9795   */\n    tag_251:\n        /* \"#utility.yul\":9842:9844   */\n      0x20\n        /* \"#utility.yul\":9834:9840   */\n      dup3\n        /* \"#utility.yul\":9831:9845   */\n      lt\n        /* \"#utility.yul\":9811:9829   */\n      dup2\n        /* \"#utility.yul\":9808:9846   */\n      sub\n        /* \"#utility.yul\":9805:9889   */\n      tag_252\n      jumpi\n        /* \"#utility.yul\":9861:9879   */\n      tag_253\n      tag_127\n      jump\t// in\n    tag_253:\n        /* \"#utility.yul\":9805:9889   */\n    tag_252:\n        /* \"#utility.yul\":9626:9895   */\n      pop\n        /* \"#utility.yul\":9575:9895   */\n      swap2\n      swap1\n      pop\n      jump\t// out\n        /* \"#utility.yul\":9901:10042   */\n    tag_128:\n        /* \"#utility.yul\":9950:9954   */\n      0x00\n        /* \"#utility.yul\":9973:9976   */\n      dup2\n        /* \"#utility.yul\":9965:9976   */\n      swap1\n      pop\n        /* \"#utility.yul\":9996:9999   */\n      dup2\n        /* \"#utility.yul\":9993:9994   */\n      0x00\n        /* \"#utility.yul\":9986:10000   */\n      mstore\n        /* \"#utility.yul\":10030:10034   */\n      0x20\n        /* \"#utility.yul\":10027:10028   */\n      0x00\n        /* \"#utility.yul\":10017:10035   */\n      keccak256\n        /* \"#utility.yul\":10009:10035   */\n      swap1\n      pop\n        /* \"#utility.yul\":9901:10042   */\n      swap2\n      swap1\n      pop\n      jump\t// out\n        /* \"#utility.yul\":10048:10141   */\n    tag_129:\n        /* \"#utility.yul\":10085:10091   */\n      0x00\n        /* \"#utility.yul\":10132:10134   */\n      0x20\n        /* \"#utility.yul\":10127:10129   */\n      0x1f\n        /* \"#utility.yul\":10120:10125   */\n      dup4\n        /* \"#utility.yul\":10116:10130   */\n      add\n        /* \"#utility.yul\":10112:10135   */\n      div\n        /* \"#utility.yul\":10102:10135   */\n      swap1\n      pop\n        /* \"#utility.yul\":10048:10141   */\n      swap2\n      swap1\n      pop\n      jump\t// out\n        /* \"#utility.yul\":10147:10254   */\n    tag_130:\n        /* \"#utility.yul\":10191:10199   */\n      0x00\n        /* \"#utility.yul\":10241:10246   */\n      dup3\n        /* \"#utility.yul\":10235:10239   */\n      dup3\n        /* \"#utility.yul\":10231:10247   */\n      shl\n        /* \"#utility.yul\":10210:10247   */\n      swap1\n      pop\n        /* \"#utility.yul\":10147:10254   */\n      swap3\n      swap2\n      pop\n      pop\n      jump\t// out\n        /* \"#utility.yul\":10260:10653   */\n    tag_131:\n        /* \"#utility.yul\":10329:10335   */\n      0x00\n        /* \"#utility.yul\":10379:10380   */\n      0x08\n        /* \"#utility.yul\":10367:10377   */\n      dup4\n        /* \"#utility.yul\":10363:10381   */\n      mul\n        /* \"#utility.yul\":10402:10499   */\n      tag_258\n        /* \"#utility.yul\":10432:10498   */\n      0xffffffffffffffffffffffffffffffffffffffffffffffffffffffffffffffff\n        /* \"#utility.yul\":10421:10430   */\n      dup3\n        /* \"#utility.yul\":10402:10499   */\n      tag_130\n      jump\t// in\n    tag_258:\n        /* \"#utility.yul\":10520:10559   */\n      tag_259\n        /* \"#utility.yul\":10550:10558   */\n      dup7\n        /* \"#utility.yul\":10539:10548   */\n      dup4\n        /* \"#utility.yul\":10520:10559   */\n      tag_130\n      jump\t// in\n    tag_259:\n        /* \"#utility.yul\":10508:10559   */\n      swap6\n      pop\n        /* \"#utility.yul\":10592:10596   */\n      dup1\n        /* \"#utility.yul\":10588:10597   */\n      not\n        /* \"#utility.yul\":10581:10586   */\n      dup5\n        /* \"#utility.yul\":10577:10598   */\n      and\n        /* \"#utility.yul\":10568:10598   */\n      swap4\n      pop\n        /* \"#utility.yul\":10641:10645   */\n      dup1\n        /* \"#utility.yul\":10631:10639   */\n      dup7\n        /* \"#utility.yul\":10627:10646   */\n      and\n        /* \"#utility.yul\":10620:10625   */\n      dup5\n        /* \"#utility.yul\":10617:10647   */\n      or\n        /* \"#utility.yul\":10607:10647   */\n      swap3\n      pop\n        /* \"#utility.yul\":10336:10653   */\n      pop\n      pop\n        /* \"#utility.yul\":10260:10653   */\n      swap4\n      swap3\n      pop\n      pop\n      pop\n      jump\t// out\n        /* \"#utility.yul\":10659:10719   */\n    tag_132:\n        /* \"#utility.yul\":10687:10690   */\n      0x00\n        /* \"#utility.yul\":10708:10713   */\n      dup2\n        /* \"#utility.yul\":10701:10713   */\n      swap1\n      pop\n        /* \"#utility.yul\":10659:10719   */\n      swap2\n      swap1\n      pop\n      jump\t// out\n        /* \"#utility.yul\":10725:10867   */\n    tag_133:\n        /* \"#utility.yul\":10775:10784   */\n      0x00\n        /* \"#utility.yul\":10808:10861   */\n      tag_262\n        /* \"#utility.yul\":10826:10860   */\n      tag_263\n        /* \"#utility.yul\":10835:10859   */\n      tag_264\n        /* \"#utility.yul\":10853:10858   */\n      dup5\n        /* \"#utility.yul\":10835:10859   */\n      tag_99\n      jump\t// in\n    tag_264:\n        /* \"#utility.yul\":10826:10860   */\n      tag_132\n      jump\t// in\n    tag_263:\n        /* \"#utility.yul\":10808:10861   */\n      tag_99\n      jump\t// in\n    tag_262:\n        /* \"#utility.yul\":10795:10861   */\n      swap1\n      pop\n        /* \"#utility.yul\":10725:10867   */\n      swap2\n      swap1\n      pop\n      jump\t// out\n        /* \"#utility.yul\":10873:10948   */\n    tag_134:\n        /* \"#utility.yul\":10916:10919   */\n      0x00\n        /* \"#utility.yul\":10937:10942   */\n      dup2\n        /* \"#utility.yul\":10930:10942   */\n      swap1\n      pop\n        /* \"#utility.yul\":10873:10948   */\n      swap2\n      swap1\n      pop\n      jump\t// out\n        /* \"#utility.yul\":10954:11223   */\n    tag_135:\n        /* \"#utility.yul\":11064:11103   */\n      tag_267\n        /* \"#utility.yul\":11095:11102   */\n      dup4\n        /* \"#utility.yul\":11064:11103   */\n      tag_133\n      jump\t// in\n    tag_267:\n        /* \"#utility.yul\":11125:11216   */\n      tag_268\n        /* \"#utility.yul\":11174:11215   */\n      tag_269\n        /* \"#utility.yul\":11198:11214   */\n      dup3\n        /* \"#utility.yul\":11174:11215   */\n      tag_134\n      jump\t// in\n    tag_269:\n        /* \"#utility.yul\":11166:11172   */\n      dup5\n        /* \"#utility.yul\":11159:11163   */\n      dup5\n        /* \"#utility.yul\":11153:11164   */\n      sload\n        /* \"#utility.yul\":11125:11216   */\n      tag_131\n      jump\t// in\n    tag_268:\n        /* \"#utility.yul\":11119:11123   */\n      dup3\n        /* \"#utility.yul\":11112:11217   */\n      sstore\n        /* \"#utility.yul\":11030:11223   */\n      pop\n        /* \"#utility.yul\":10954:11223   */\n      pop\n      pop\n      pop\n      jump\t// out\n        /* \"#utility.yul\":11229:11302   */\n    tag_136:\n        /* \"#utility.yul\":11274:11277   */\n      0x00\n        /* \"#utility.yul\":11229:11302   */\n      swap1\n      jump\t// out\n        /* \"#utility.yul\":11308:11497   */\n    tag_137:\n        /* \"#utility.yul\":11385:11417   */\n      tag_272\n      tag_136\n      jump\t// in\n    tag_272:\n        /* \"#utility.yul\":11426:11491   */\n      tag_273\n        /* \"#utility.yul\":11484:11490   */\n      dup2\n        /* \"#utility.yul\":11476:11482   */\n      dup5\n        /* \"#utility.yul\":11470:11474   */\n      dup5\n        /* \"#utility.yul\":11426:11491   */\n      tag_135\n      jump\t// in\n    tag_273:\n        /* \"#utility.yul\":11361:11497   */\n      pop\n        /* \"#utility.yul\":11308:11497   */\n      pop\n      pop\n      jump\t// out\n        /* \"#utility.yul\":11503:11689   */\n    tag_138:\n        /* \"#utility.yul\":11563:11683   */\n    tag_275:\n        /* \"#utility.yul\":11580:11583   */\n      dup2\n        /* \"#utility.yul\":11573:11578   */\n      dup2\n        /* \"#utility.yul\":11570:11584   */\n      lt\n        /* \"#utility.yul\":11563:11683   */\n      iszero\n      tag_277\n      jumpi\n        /* \"#utility.yul\":11634:11673   */\n      tag_278\n        /* \"#utility.yul\":11671:11672   */\n      0x00\n        /* \"#utility.yul\":11664:11669   */\n      dup3\n        /* \"#utility.yul\":11634:11673   */\n      tag_137\n      jump\t// in\n    tag_278:\n        /* \"#utility.yul\":11607:11608   */\n      0x01\n        /* \"#utility.yul\":11600:11605   */\n      dup2\n        /* \"#utility.yul\":11596:11609   */\n      add\n        /* \"#utility.yul\":11587:11609   */\n      swap1\n      pop\n        /* \"#utility.yul\":11563:11683   */\n      jump(tag_275)\n    tag_277:\n        /* \"#utility.yul\":11503:11689   */\n      pop\n      pop\n      jump\t// out\n        /* \"#utility.yul\":11695:12238   */\n    tag_139:\n        /* \"#utility.yul\":11796:11798   */\n      0x1f\n        /* \"#utility.yul\":11791:11794   */\n      dup3\n        /* \"#utility.yul\":11788:11799   */\n      gt\n        /* \"#utility.yul\":11785:12231   */\n      iszero\n      tag_280\n      jumpi\n        /* \"#utility.yul\":11830:11868   */\n      tag_281\n        /* \"#utility.yul\":11862:11867   */\n      dup2\n        /* \"#utility.yul\":11830:11868   */\n      tag_128\n      jump\t// in\n    tag_281:\n        /* \"#utility.yul\":11914:11943   */\n      tag_282\n        /* \"#utility.yul\":11932:11942   */\n      dup5\n        /* \"#utility.yul\":11914:11943   */\n      tag_129\n      jump\t// in\n    tag_282:\n        /* \"#utility.yul\":11904:11912   */\n      dup2\n        /* \"#utility.yul\":11900:11944   */\n      add\n        /* \"#utility.yul\":12097:12099   */\n      0x20\n        /* \"#utility.yul\":12085:12095   */\n      dup6\n        /* \"#utility.yul\":12082:12100   */\n      lt\n        /* \"#utility.yul\":12079:12128   */\n      iszero\n      tag_283\n      jumpi\n        /* \"#utility.yul\":12118:12126   */\n      dup2\n        /* \"#utility.yul\":12103:12126   */\n      swap1\n      pop\n        /* \"#utility.yul\":12079:12128   */\n    tag_283:\n        /* \"#utility.yul\":12141:12221   */\n      tag_284\n        /* \"#utility.yul\":12197:12219   */\n      tag_285\n        /* \"#utility.yul\":12215:12218   */\n      dup6\n        /* \"#utility.yul\":12197:12219   */\n      tag_129\n      jump\t// in\n    tag_285:\n        /* \"#utility.yul\":12187:12195   */\n      dup4\n        /* \"#utility.yul\":12183:12220   */\n      add\n        /* \"#utility.yul\":12170:12181   */\n      dup3\n        /* \"#utility.yul\":12141:12221   */\n      tag_138\n      jump\t// in\n    tag_284:\n        /* \"#utility.yul\":11800:12231   */\n      pop\n      pop\n        /* \"#utility.yul\":11785:12231   */\n    tag_280:\n        /* \"#utility.yul\":11695:12238   */\n      pop\n      pop\n      pop\n      jump\t// out\n        /* \"#utility.yul\":12244:12361   */\n    tag_140:\n        /* \"#utility.yul\":12298:12306   */\n      0x00\n        /* \"#utility.yul\":12348:12353   */\n      dup3\n        /* \"#utility.yul\":12342:12346   */\n      dup3\n        /* \"#utility.yul\":12338:12354   */\n      shr\n        /* \"#utility.yul\":12317:12354   */\n      swap1\n      pop\n        /* \"#utility.yul\":12244:12361   */\n      swap3\n      swap2\n      pop\n      pop\n      jump\t// out\n        /* \"#utility.yul\":12367:12536   */\n    tag_141:\n        /* \"#utility.yul\":12411:12417   */\n      0x00\n        /* \"#utility.yul\":12444:12495   */\n      tag_288\n        /* \"#utility.yul\":12492:12493   */\n      0x00\n        /* \"#utility.yul\":12488:12494   */\n      not\n        /* \"#utility.yul\":12480:12485   */\n      dup5\n        /* \"#utility.yul\":12477:12478   */\n      0x08\n        /* \"#utility.yul\":12473:12486   */\n      mul\n        /* \"#utility.yul\":12444:12495   */\n      tag_140\n      jump\t// in\n    tag_288:\n        /* \"#utility.yul\":12440:12496   */\n      not\n        /* \"#utility.yul\":12525:12529   */\n      dup1\n        /* \"#utility.yul\":12519:12523   */\n      dup4\n        /* \"#utility.yul\":12515:12530   */\n      and\n        /* \"#utility.yul\":12505:12530   */\n      swap2\n      pop\n        /* \"#utility.yul\":12418:12536   */\n      pop\n        /* \"#utility.yul\":12367:12536   */\n      swap3\n      swap2\n      pop\n      pop\n      jump\t// out\n        /* \"#utility.yul\":12541:12836   */\n    tag_142:\n        /* \"#utility.yul\":12617:12621   */\n      0x00\n        /* \"#utility.yul\":12763:12792   */\n      tag_290\n        /* \"#utility.yul\":12788:12791   */\n      dup4\n        /* \"#utility.yul\":12782:12786   */\n      dup4\n        /* \"#utility.yul\":12763:12792   */\n      tag_141\n      jump\t// in\n    tag_290:\n        /* \"#utility.yul\":12755:12792   */\n      swap2\n      pop\n        /* \"#utility.yul\":12825:12828   */\n      dup3\n        /* \"#utility.yul\":12822:12823   */\n      0x02\n        /* \"#utility.yul\":12818:12829   */\n      mul\n        /* \"#utility.yul\":12812:12816   */\n      dup3\n        /* \"#utility.yul\":12809:12830   */\n      or\n        /* \"#utility.yul\":12801:12830   */\n      swap1\n      pop\n        /* \"#utility.yul\":12541:12836   */\n      swap3\n      swap2\n      pop\n      pop\n      jump\t// out\n        /* \"#utility.yul\":12841:14236   */\n    tag_59:\n        /* \"#utility.yul\":12958:12995   */\n      tag_292\n        /* \"#utility.yul\":12991:12994   */\n      dup3\n        /* \"#utility.yul\":12958:12995   */\n      tag_116\n      jump\t// in\n    tag_292:\n        /* \"#utility.yul\":13060:13078   */\n      0xffffffffffffffff\n        /* \"#utility.yul\":13052:13058   */\n      dup2\n        /* \"#utility.yul\":13049:13079   */\n      gt\n        /* \"#utility.yul\":13046:13102   */\n      iszero\n      tag_293\n      jumpi\n        /* \"#utility.yul\":13082:13100   */\n      tag_294\n      tag_105\n      jump\t// in\n    tag_294:\n        /* \"#utility.yul\":13046:13102   */\n    tag_293:\n        /* \"#utility.yul\":13126:13164   */\n      tag_295\n        /* \"#utility.yul\":13158:13162   */\n      dup3\n        /* \"#utility.yul\":13152:13163   */\n      sload\n        /* \"#utility.yul\":13126:13164   */\n      tag_77\n      jump\t// in\n    tag_295:\n        /* \"#utility.yul\":13211:13278   */\n      tag_296\n        /* \"#utility.yul\":13271:13277   */\n      dup3\n        /* \"#utility.yul\":13263:13269   */\n      dup3\n        /* \"#utility.yul\":13257:13261   */\n      dup6\n        /* \"#utility.yul\":13211:13278   */\n      tag_139\n      jump\t// in\n    tag_296:\n        /* \"#utility.yul\":13305:13306   */\n      0x00\n        /* \"#utility.yul\":13329:13333   */\n      0x20\n        /* \"#utility.yul\":13316:13333   */\n      swap1\n      pop\n        /* \"#utility.yul\":13361:13363   */\n      0x1f\n        /* \"#utility.yul\":13353:13359   */\n      dup4\n        /* \"#utility.yul\":13350:13364   */\n      gt\n        /* \"#utility.yul\":13378:13379   */\n      0x01\n        /* \"#utility.yul\":13373:13991   */\n      dup2\n      eq\n      tag_298\n      jumpi\n        /* \"#utility.yul\":14035:14036   */\n      0x00\n        /* \"#utility.yul\":14052:14058   */\n      dup5\n        /* \"#utility.yul\":14049:14126   */\n      iszero\n      tag_299\n      jumpi\n        /* \"#utility.yul\":14101:14110   */\n      dup3\n        /* \"#utility.yul\":14096:14099   */\n      dup8\n        /* \"#utility.yul\":14092:14111   */\n      add\n        /* \"#utility.yul\":14086:14112   */\n      mload\n        /* \"#utility.yul\":14077:14112   */\n      swap1\n      pop\n        /* \"#utility.yul\":14049:14126   */\n    tag_299:\n        /* \"#utility.yul\":14152:14219   */\n      tag_300\n        /* \"#utility.yul\":14212:14218   */\n      dup6\n        /* \"#utility.yul\":14205:14210   */\n      dup3\n        /* \"#utility.yul\":14152:14219   */\n      tag_142\n      jump\t// in\n    tag_300:\n        /* \"#utility.yul\":14146:14150   */\n      dup7\n        /* \"#utility.yul\":14139:14220   */\n      sstore\n        /* \"#utility.yul\":14008:14230   */\n      pop\n        /* \"#utility.yul\":13343:14230   */\n      jump(tag_297)\n        /* \"#utility.yul\":13373:13991   */\n    tag_298:\n        /* \"#utility.yul\":13425:13429   */\n      0x1f\n        /* \"#utility.yul\":13421:13430   */\n      not\n        /* \"#utility.yul\":13413:13419   */\n      dup5\n        /* \"#utility.yul\":13409:13431   */\n      and\n        /* \"#utility.yul\":13459:13496   */\n      tag_301\n        /* \"#utility.yul\":13491:13495   */\n      dup7\n        /* \"#utility.yul\":13459:13496   */\n      tag_128\n      jump\t// in\n    tag_301:\n        /* \"#utility.yul\":13518:13519   */\n      0x00\n        /* \"#utility.yul\":13532:13740   */\n    tag_302:\n        /* \"#utility.yul\":13546:13553   */\n      dup3\n        /* \"#utility.yul\":13543:13544   */\n      dup2\n        /* \"#utility.yul\":13540:13554   */\n      lt\n        /* \"#utility.yul\":13532:13740   */\n      iszero\n      tag_304\n      jumpi\n        /* \"#utility.yul\":13625:13634   */\n      dup5\n        /* \"#utility.yul\":13620:13623   */\n      dup10\n        /* \"#utility.yul\":13616:13635   */\n      add\n        /* \"#utility.yul\":13610:13636   */\n      mload\n        /* \"#utility.yul\":13602:13608   */\n      dup3\n        /* \"#utility.yul\":13595:13637   */\n      sstore\n        /* \"#utility.yul\":13676:13677   */\n      0x01\n        /* \"#utility.yul\":13668:13674   */\n      dup3\n        /* \"#utility.yul\":13664:13678   */\n      add\n        /* \"#utility.yul\":13654:13678   */\n      swap2\n      pop\n        /* \"#utility.yul\":13723:13725   */\n      0x20\n        /* \"#utility.yul\":13712:13721   */\n      dup6\n        /* \"#utility.yul\":13708:13726   */\n      add\n        /* \"#utility.yul\":13695:13726   */\n      swap5\n      pop\n        /* \"#utility.yul\":13569:13573   */\n      0x20\n        /* \"#utility.yul\":13566:13567   */\n      dup2\n        /* \"#utility.yul\":13562:13574   */\n      add\n        /* \"#utility.yul\":13557:13574   */\n      swap1\n      pop\n        /* \"#utility.yul\":13532:13740   */\n      jump(tag_302)\n    tag_304:\n        /* \"#utility.yul\":13768:13774   */\n      dup7\n        /* \"#utility.yul\":13759:13766   */\n      dup4\n        /* \"#utility.yul\":13756:13775   */\n      lt\n        /* \"#utility.yul\":13753:13932   */\n      iszero\n      tag_305\n      jumpi\n        /* \"#utility.yul\":13826:13835   */\n      dup5\n        /* \"#utility.yul\":13821:13824   */\n      dup10\n        /* \"#utility.yul\":13817:13836   */\n      add\n        /* \"#utility.yul\":13811:13837   */\n      mload\n        /* \"#utility.yul\":13869:13917   */\n      tag_306\n        /* \"#utility.yul\":13911:13915   */\n      0x1f\n        /* \"#utility.yul\":13903:13909   */\n      dup10\n        /* \"#utility.yul\":13899:13916   */\n      and\n        /* \"#utility.yul\":13888:13897   */\n      dup3\n        /* \"#utility.yul\":13869:13917   */\n      tag_141\n      jump\t// in\n    tag_306:\n        /* \"#utility.yul\":13861:13867   */\n      dup4\n        /* \"#utility.yul\":13854:13918   */\n      sstore\n        /* \"#utility.yul\":13776:13932   */\n      pop\n        /* \"#utility.yul\":13753:13932   */\n    tag_305:\n        /* \"#utility.yul\":13978:13979   */\n      0x01\n        /* \"#utility.yul\":13974:13975   */\n      0x02\n        /* \"#utility.yul\":13966:13972   */\n      dup9\n        /* \"#utility.yul\":13962:13976   */\n      mul\n        /* \"#utility.yul\":13958:13980   */\n      add\n        /* \"#utility.yul\":13952:13956   */\n      dup9\n        /* \"#utility.yul\":13945:13981   */\n      sstore\n        /* \"#utility.yul\":13380:13991   */\n      pop\n      pop\n      pop\n        /* \"#utility.yul\":13343:14230   */\n    tag_297:\n      pop\n        /* \"#utility.yul\":12933:14236   */\n      pop\n      pop\n      pop\n        /* \"#utility.yul\":12841:14236   */\n      pop\n      pop\n      jump\t// out\n        /* \"#utility.yul\":14242:14775   */\n    tag_62:\n        /* \"#utility.yul\":14411:14415   */\n      0x00\n        /* \"#utility.yul\":14449:14451   */\n      0x60\n        /* \"#utility.yul\":14438:14447   */\n      dup3\n        /* \"#utility.yul\":14434:14452   */\n      add\n        /* \"#utility.yul\":14426:14452   */\n      swap1\n      pop\n        /* \"#utility.yul\":14462:14533   */\n      tag_308\n        /* \"#utility.yul\":14530:14531   */\n      0x00\n        /* \"#utility.yul\":14519:14528   */\n      dup4\n        /* \"#utility.yul\":14515:14532   */\n      add\n        /* \"#utility.yul\":14506:14512   */\n      dup7\n        /* \"#utility.yul\":14462:14533   */\n      tag_123\n      jump\t// in\n    tag_308:\n        /* \"#utility.yul\":14580:14589   */\n      dup2\n        /* \"#utility.yul\":14574:14578   */\n      dup2\n        /* \"#utility.yul\":14570:14590   */\n      sub\n        /* \"#utility.yul\":14565:14567   */\n      0x20\n        /* \"#utility.yul\":14554:14563   */\n      dup4\n        /* \"#utility.yul\":14550:14568   */\n      add\n        /* \"#utility.yul\":14543:14591   */\n      mstore\n        /* \"#utility.yul\":14608:14686   */\n      tag_309\n        /* \"#utility.yul\":14681:14685   */\n      dup2\n        /* \"#utility.yul\":14672:14678   */\n      dup6\n        /* \"#utility.yul\":14608:14686   */\n      tag_119\n      jump\t// in\n    tag_309:\n        /* \"#utility.yul\":14600:14686   */\n      swap1\n      pop\n        /* \"#utility.yul\":14696:14768   */\n      tag_310\n        /* \"#utility.yul\":14764:14766   */\n      0x40\n        /* \"#utility.yul\":14753:14762   */\n      dup4\n        /* \"#utility.yul\":14749:14767   */\n      add\n        /* \"#utility.yul\":14740:14746   */\n      dup5\n        /* \"#utility.yul\":14696:14768   */\n      tag_120\n      jump\t// in\n    tag_310:\n        /* \"#utility.yul\":14242:14775   */\n      swap5\n      swap4\n      pop\n      pop\n      pop\n      pop\n      jump\t// out\n        /* \"#utility.yul\":14781:14949   */\n    tag_143:\n        /* \"#utility.yul\":14921:14941   */\n      0x546f6f6c206973206e6f74206163746976650000000000000000000000000000\n        /* \"#utility.yul\":14917:14918   */\n      0x00\n        /* \"#utility.yul\":14909:14915   */\n      dup3\n        /* \"#utility.yul\":14905:14919   */\n      add\n        /* \"#utility.yul\":14898:14942   */\n      mstore\n        /* \"#utility.yul\":14781:14949   */\n      pop\n      jump\t// out\n        /* \"#utility.yul\":14955:15321   */\n    tag_144:\n        /* \"#utility.yul\":15097:15100   */\n      0x00\n        /* \"#utility.yul\":15118:15185   */\n      tag_313\n        /* \"#utility.yul\":15182:15184   */\n      0x12\n        /* \"#utility.yul\":15177:15180   */\n      dup4\n        /* \"#utility.yul\":15118:15185   */\n      tag_117\n      jump\t// in\n    tag_313:\n        /* \"#utility.yul\":15111:15185   */\n      swap2\n      pop\n        /* \"#utility.yul\":15194:15287   */\n      tag_314\n        /* \"#utility.yul\":15283:15286   */\n      dup3\n        /* \"#utility.yul\":15194:15287   */\n      tag_143\n      jump\t// in\n    tag_314:\n        /* \"#utility.yul\":15312:15314   */\n      0x20\n        /* \"#utility.yul\":15307:15310   */\n      dup3\n        /* \"#utility.yul\":15303:15315   */\n      add\n        /* \"#utility.yul\":15296:15315   */\n      swap1\n      pop\n        /* \"#utility.yul\":14955:15321   */\n      swap2\n      swap1\n      pop\n      jump\t// out\n        /* \"#utility.yul\":15327:15746   */\n    tag_69:\n        /* \"#utility.yul\":15493:15497   */\n      0x00\n        /* \"#utility.yul\":15531:15533   */\n      0x20\n        /* \"#utility.yul\":15520:15529   */\n      dup3\n        /* \"#utility.yul\":15516:15534   */\n      add\n        /* \"#utility.yul\":15508:15534   */\n      swap1\n      pop\n        /* \"#utility.yul\":15580:15589   */\n      dup2\n        /* \"#utility.yul\":15574:15578   */\n      dup2\n        /* \"#utility.yul\":15570:15590   */\n      sub\n        /* \"#utility.yul\":15566:15567   */\n      0x00\n        /* \"#utility.yul\":15555:15564   */\n      dup4\n        /* \"#utility.yul\":15551:15568   */\n      add\n        /* \"#utility.yul\":15544:15591   */\n      mstore\n        /* \"#utility.yul\":15608:15739   */\n      tag_316\n        /* \"#utility.yul\":15734:15738   */\n      dup2\n        /* \"#utility.yul\":15608:15739   */\n      tag_144\n      jump\t// in\n    tag_316:\n        /* \"#utility.yul\":15600:15739   */\n      swap1\n      pop\n        /* \"#utility.yul\":15327:15746   */\n      swap2\n      swap1\n      pop\n      jump\t// out\n        /* \"#utility.yul\":15752:16084   */\n    tag_71:\n        /* \"#utility.yul\":15873:15877   */\n      0x00\n        /* \"#utility.yul\":15911:15913   */\n      0x40\n        /* \"#utility.yul\":15900:15909   */\n      dup3\n        /* \"#utility.yul\":15896:15914   */\n      add\n        /* \"#utility.yul\":15888:15914   */\n      swap1\n      pop\n        /* \"#utility.yul\":15924:15995   */\n      tag_318\n        /* \"#utility.yul\":15992:15993   */\n      0x00\n        /* \"#utility.yul\":15981:15990   */\n      dup4\n        /* \"#utility.yul\":15977:15994   */\n      add\n        /* \"#utility.yul\":15968:15974   */\n      dup6\n        /* \"#utility.yul\":15924:15995   */\n      tag_123\n      jump\t// in\n    tag_318:\n        /* \"#utility.yul\":16005:16077   */\n      tag_319\n        /* \"#utility.yul\":16073:16075   */\n      0x20\n        /* \"#utility.yul\":16062:16071   */\n      dup4\n        /* \"#utility.yul\":16058:16076   */\n      add\n        /* \"#utility.yul\":16049:16055   */\n      dup5\n        /* \"#utility.yul\":16005:16077   */\n      tag_120\n      jump\t// in\n    tag_319:\n        /* \"#utility.yul\":15752:16084   */\n      swap4\n      swap3\n      pop\n      pop\n      pop\n      jump\t// out\n        /* \"#utility.yul\":16090:16265   */\n    tag_145:\n        /* \"#utility.yul\":16230:16257   */\n      0x5573657220646f6573206e6f7420686176652061636365737300000000000000\n        /* \"#utility.yul\":16226:16227   */\n      0x00\n        /* \"#utility.yul\":16218:16224   */\n      dup3\n        /* \"#utility.yul\":16214:16228   */\n      add\n        /* \"#utility.yul\":16207:16258   */\n      mstore\n        /* \"#utility.yul\":16090:16265   */\n      pop\n      jump\t// out\n        /* \"#utility.yul\":16271:16637   */\n    tag_146:\n        /* \"#utility.yul\":16413:16416   */\n      0x00\n        /* \"#utility.yul\":16434:16501   */\n      tag_322\n        /* \"#utility.yul\":16498:16500   */\n      0x19\n        /* \"#utility.yul\":16493:16496   */\n      dup4\n        /* \"#utility.yul\":16434:16501   */\n      tag_117\n      jump\t// in\n    tag_322:\n        /* \"#utility.yul\":16427:16501   */\n      swap2\n      pop\n        /* \"#utility.yul\":16510:16603   */\n      tag_323\n        /* \"#utility.yul\":16599:16602   */\n      dup3\n        /* \"#utility.yul\":16510:16603   */\n      tag_145\n      jump\t// in\n    tag_323:\n        /* \"#utility.yul\":16628:16630   */\n      0x20\n        /* \"#utility.yul\":16623:16626   */\n      dup3\n        /* \"#utility.yul\":16619:16631   */\n      add\n        /* \"#utility.yul\":16612:16631   */\n      swap1\n      pop\n        /* \"#utility.yul\":16271:16637   */\n      swap2\n      swap1\n      pop\n      jump\t// out\n        /* \"#utility.yul\":16643:17062   */\n    tag_94:\n        /* \"#utility.yul\":16809:16813   */\n      0x00\n        /* \"#utility.yul\":16847:16849   */\n      0x20\n        /* \"#utility.yul\":16836:16845   */\n      dup3\n        /* \"#utility.yul\":16832:16850   */\n      add\n        /* \"#utility.yul\":16824:16850   */\n      swap1\n      pop\n        /* \"#utility.yul\":16896:16905   */\n      dup2\n        /* \"#utility.yul\":16890:16894   */\n      dup2\n        /* \"#utility.yul\":16886:16906   */\n      sub\n        /* \"#utility.yul\":16882:16883   */\n      0x00\n        /* \"#utility.yul\":16871:16880   */\n      dup4\n        /* \"#utility.yul\":16867:16884   */\n      add\n        /* \"#utility.yul\":16860:16907   */\n      mstore\n        /* \"#utility.yul\":16924:17055   */\n      tag_325\n        /* \"#utility.yul\":17050:17054   */\n      dup2\n        /* \"#utility.yul\":16924:17055   */\n      tag_146\n      jump\t// in\n    tag_325:\n        /* \"#utility.yul\":16916:17055   */\n      swap1\n      pop\n        /* \"#utility.yul\":16643:17062   */\n      swap2\n      swap1\n      pop\n      jump\t// out\n\n    auxdata: 0xa26469706673582212201bdcf0735fbd68a80ba4d25edd89c64746876cb95371fdd84f1c0978962b6edc64736f6c634300081a0033\n}\n",
				"bytecode": {
					"linkReferences": {},
					"object": "6080604052348015600e575f80fd5b5061133b8061001c5f395ff3fe608060405234801561000f575f80fd5b5060043610610091575f3560e01c8063bc60c31d11610064578063bc60c31d14610105578063c82d3a5514610138578063ced1419814610168578063d9a5ec1b14610198578063faf23b23146101b457610091565b806320d79486146100955780634ad35e2e146100b157806365dd152c146100cd578063b861a453146100e9575b5f80fd5b6100af60048036038101906100aa9190610a5f565b6101d2565b005b6100cb60048036038101906100c69190610bc6565b6102a2565b005b6100e760048036038101906100e29190610c96565b6103d9565b005b61010360048036038101906100fe9190610a5f565b61057b565b005b61011f600480360381019061011a9190610a5f565b61064c565b60405161012f9493929190610d5d565b60405180910390f35b610152600480360381019061014d9190610dae565b6107af565b60405161015f9190610dec565b60405180910390f35b610182600480360381019061017d9190610c96565b6107d9565b60405161018f9190610dec565b60405180910390f35b6101b260048036038101906101ad9190610c96565b61083b565b005b6101bc610a15565b6040516101c99190610e14565b60405180910390f35b803373ffffffffffffffffffffffffffffffffffffffff165f808381526020019081526020015f206002015f9054906101000a900473ffffffffffffffffffffffffffffffffffffffff1673ffffffffffffffffffffffffffffffffffffffff1614610273576040517f08c379a000000000000000000000000000000000000000000000000000000000815260040161026a90610e77565b60405180910390fd5b5f805f8481526020019081526020015f2060020160146101000a81548160ff0219169083151502179055505050565b60025f8154809291906102b490610ec2565b919050555060405180608001604052808381526020018281526020013373ffffffffffffffffffffffffffffffffffffffff168152602001600115158152505f8060025481526020019081526020015f205f820151815f0190816103189190611103565b50602082015181600101908161032e9190611103565b506040820151816002015f6101000a81548173ffffffffffffffffffffffffffffffffffffffff021916908373ffffffffffffffffffffffffffffffffffffffff16021790555060608201518160020160146101000a81548160ff0219169083151502179055509050507f143be77a13f3d2312e1153bbf9a5580c985d4a459dce180f2957d9d7fa00411160025483336040516103cd939291906111d2565b60405180910390a15050565b813373ffffffffffffffffffffffffffffffffffffffff165f808381526020019081526020015f206002015f9054906101000a900473ffffffffffffffffffffffffffffffffffffffff1673ffffffffffffffffffffffffffffffffffffffff161461047a576040517f08c379a000000000000000000000000000000000000000000000000000000000815260040161047190610e77565b60405180910390fd5b5f808481526020019081526020015f2060020160149054906101000a900460ff166104da576040517f08c379a00000000000000000000000000000000000000000000000000000000081526004016104d190611258565b60405180910390fd5b6001805f8473ffffffffffffffffffffffffffffffffffffffff1673ffffffffffffffffffffffffffffffffffffffff1681526020019081526020015f205f8581526020019081526020015f205f6101000a81548160ff0219169083151502179055507f3c3a9147a1fc73dd51a32f4d10c43d457e8cb826eb6f35cac6349eb965ba82b4838360405161056e929190611276565b60405180910390a1505050565b803373ffffffffffffffffffffffffffffffffffffffff165f808381526020019081526020015f206002015f9054906101000a900473ffffffffffffffffffffffffffffffffffffffff1673ffffffffffffffffffffffffffffffffffffffff161461061c576040517f08c379a000000000000000000000000000000000000000000000000000000000815260040161061390610e77565b60405180910390fd5b60015f808481526020019081526020015f2060020160146101000a81548160ff0219169083151502179055505050565b5f602052805f5260405f205f91509050805f01805461066a90610f36565b80601f016020809104026020016040519081016040528092919081815260200182805461069690610f36565b80156106e15780601f106106b8576101008083540402835291602001916106e1565b820191905f5260205f20905b8154815290600101906020018083116106c457829003601f168201915b5050505050908060010180546106f690610f36565b80601f016020809104026020016040519081016040528092919081815260200182805461072290610f36565b801561076d5780601f106107445761010080835404028352916020019161076d565b820191905f5260205f20905b81548152906001019060200180831161075057829003601f168201915b505050505090806002015f9054906101000a900473ffffffffffffffffffffffffffffffffffffffff16908060020160149054906101000a900460ff16905084565b6001602052815f5260405f20602052805f5260405f205f915091509054906101000a900460ff1681565b5f60015f8373ffffffffffffffffffffffffffffffffffffffff1673ffffffffffffffffffffffffffffffffffffffff1681526020019081526020015f205f8481526020019081526020015f205f9054906101000a900460ff16905092915050565b813373ffffffffffffffffffffffffffffffffffffffff165f808381526020019081526020015f206002015f9054906101000a900473ffffffffffffffffffffffffffffffffffffffff1673ffffffffffffffffffffffffffffffffffffffff16146108dc576040517f08c379a00000000000000000000000000000000000000000000000000000000081526004016108d390610e77565b60405180910390fd5b60015f8373ffffffffffffffffffffffffffffffffffffffff1673ffffffffffffffffffffffffffffffffffffffff1681526020019081526020015f205f8481526020019081526020015f205f9054906101000a900460ff16610974576040517f08c379a000000000000000000000000000000000000000000000000000000000815260040161096b906112e7565b60405180910390fd5b5f60015f8473ffffffffffffffffffffffffffffffffffffffff1673ffffffffffffffffffffffffffffffffffffffff1681526020019081526020015f205f8581526020019081526020015f205f6101000a81548160ff0219169083151502179055507f125883b94692baebecad9f111ed97ffa626523bbbadc6b0ef85ee1b56b9e52d58383604051610a08929190611276565b60405180910390a1505050565b60025481565b5f604051905090565b5f80fd5b5f80fd5b5f819050919050565b610a3e81610a2c565b8114610a48575f80fd5b50565b5f81359050610a5981610a35565b92915050565b5f60208284031215610a7457610a73610a24565b5b5f610a8184828501610a4b565b91505092915050565b5f80fd5b5f80fd5b5f601f19601f8301169050919050565b7f4e487b71000000000000000000000000000000000000000000000000000000005f52604160045260245ffd5b610ad882610a92565b810181811067ffffffffffffffff82111715610af757610af6610aa2565b5b80604052505050565b5f610b09610a1b565b9050610b158282610acf565b919050565b5f67ffffffffffffffff821115610b3457610b33610aa2565b5b610b3d82610a92565b9050602081019050919050565b828183375f83830152505050565b5f610b6a610b6584610b1a565b610b00565b905082815260208101848484011115610b8657610b85610a8e565b5b610b91848285610b4a565b509392505050565b5f82601f830112610bad57610bac610a8a565b5b8135610bbd848260208601610b58565b91505092915050565b5f8060408385031215610bdc57610bdb610a24565b5b5f83013567ffffffffffffffff811115610bf957610bf8610a28565b5b610c0585828601610b99565b925050602083013567ffffffffffffffff811115610c2657610c25610a28565b5b610c3285828601610b99565b9150509250929050565b5f73ffffffffffffffffffffffffffffffffffffffff82169050919050565b5f610c6582610c3c565b9050919050565b610c7581610c5b565b8114610c7f575f80fd5b50565b5f81359050610c9081610c6c565b92915050565b5f8060408385031215610cac57610cab610a24565b5b5f610cb985828601610a4b565b9250506020610cca85828601610c82565b9150509250929050565b5f81519050919050565b5f82825260208201905092915050565b8281835e5f83830152505050565b5f610d0682610cd4565b610d108185610cde565b9350610d20818560208601610cee565b610d2981610a92565b840191505092915050565b610d3d81610c5b565b82525050565b5f8115159050919050565b610d5781610d43565b82525050565b5f6080820190508181035f830152610d758187610cfc565b90508181036020830152610d898186610cfc565b9050610d986040830185610d34565b610da56060830184610d4e565b95945050505050565b5f8060408385031215610dc457610dc3610a24565b5b5f610dd185828601610c82565b9250506020610de285828601610a4b565b9150509250929050565b5f602082019050610dff5f830184610d4e565b92915050565b610e0e81610a2c565b82525050565b5f602082019050610e275f830184610e05565b92915050565b7f4e6f742074686520746f6f6c206f776e657200000000000000000000000000005f82015250565b5f610e61601283610cde565b9150610e6c82610e2d565b602082019050919050565b5f6020820190508181035f830152610e8e81610e55565b9050919050565b7f4e487b71000000000000000000000000000000000000000000000000000000005f52601160045260245ffd5b5f610ecc82610a2c565b91507fffffffffffffffffffffffffffffffffffffffffffffffffffffffffffffffff8203610efe57610efd610e95565b5b600182019050919050565b7f4e487b71000000000000000000000000000000000000000000000000000000005f52602260045260245ffd5b5f6002820490506001821680610f4d57607f821691505b602082108103610f6057610f5f610f09565b5b50919050565b5f819050815f5260205f209050919050565b5f6020601f8301049050919050565b5f82821b905092915050565b5f60088302610fc27fffffffffffffffffffffffffffffffffffffffffffffffffffffffffffffffff82610f87565b610fcc8683610f87565b95508019841693508086168417925050509392505050565b5f819050919050565b5f611007611002610ffd84610a2c565b610fe4565b610a2c565b9050919050565b5f819050919050565b61102083610fed565b61103461102c8261100e565b848454610f93565b825550505050565b5f90565b61104861103c565b611053818484611017565b505050565b5b818110156110765761106b5f82611040565b600181019050611059565b5050565b601f8211156110bb5761108c81610f66565b61109584610f78565b810160208510156110a4578190505b6110b86110b085610f78565b830182611058565b50505b505050565b5f82821c905092915050565b5f6110db5f19846008026110c0565b1980831691505092915050565b5f6110f383836110cc565b9150826002028217905092915050565b61110c82610cd4565b67ffffffffffffffff81111561112557611124610aa2565b5b61112f8254610f36565b61113a82828561107a565b5f60209050601f83116001811461116b575f8415611159578287015190505b61116385826110e8565b8655506111ca565b601f19841661117986610f66565b5f5b828110156111a05784890151825560018201915060208501945060208101905061117b565b868310156111bd57848901516111b9601f8916826110cc565b8355505b6001600288020188555050505b505050505050565b5f6060820190506111e55f830186610e05565b81810360208301526111f78185610cfc565b90506112066040830184610d34565b949350505050565b7f546f6f6c206973206e6f742061637469766500000000000000000000000000005f82015250565b5f611242601283610cde565b915061124d8261120e565b602082019050919050565b5f6020820190508181035f83015261126f81611236565b9050919050565b5f6040820190506112895f830185610e05565b6112966020830184610d34565b9392505050565b7f5573657220646f6573206e6f74206861766520616363657373000000000000005f82015250565b5f6112d1601983610cde565b91506112dc8261129d565b602082019050919050565b5f6020820190508181035f8301526112fe816112c5565b905091905056fea26469706673582212201bdcf0735fbd68a80ba4d25edd89c64746876cb95371fdd84f1c0978962b6edc64736f6c634300081a0033",
					"opcodes": "PUSH1 0x80 PUSH1 0x40 MSTORE CALLVALUE DUP1 ISZERO PUSH1 0xE JUMPI PUSH0 DUP1 REVERT JUMPDEST POP PUSH2 0x133B DUP1 PUSH2 0x1C PUSH0 CODECOPY PUSH0 RETURN INVALID PUSH1 0x80 PUSH1 0x40 MSTORE CALLVALUE DUP1 ISZERO PUSH2 0xF JUMPI PUSH0 DUP1 REVERT JUMPDEST POP PUSH1 0x4 CALLDATASIZE LT PUSH2 0x91 JUMPI PUSH0 CALLDATALOAD PUSH1 0xE0 SHR DUP1 PUSH4 0xBC60C31D GT PUSH2 0x64 JUMPI DUP1 PUSH4 0xBC60C31D EQ PUSH2 0x105 JUMPI DUP1 PUSH4 0xC82D3A55 EQ PUSH2 0x138 JUMPI DUP1 PUSH4 0xCED14198 EQ PUSH2 0x168 JUMPI DUP1 PUSH4 0xD9A5EC1B EQ PUSH2 0x198 JUMPI DUP1 PUSH4 0xFAF23B23 EQ PUSH2 0x1B4 JUMPI PUSH2 0x91 JUMP JUMPDEST DUP1 PUSH4 0x20D79486 EQ PUSH2 0x95 JUMPI DUP1 PUSH4 0x4AD35E2E EQ PUSH2 0xB1 JUMPI DUP1 PUSH4 0x65DD152C EQ PUSH2 0xCD JUMPI DUP1 PUSH4 0xB861A453 EQ PUSH2 0xE9 JUMPI JUMPDEST PUSH0 DUP1 REVERT JUMPDEST PUSH2 0xAF PUSH1 0x4 DUP1 CALLDATASIZE SUB DUP2 ADD SWAP1 PUSH2 0xAA SWAP2 SWAP1 PUSH2 0xA5F JUMP JUMPDEST PUSH2 0x1D2 JUMP JUMPDEST STOP JUMPDEST PUSH2 0xCB PUSH1 0x4 DUP1 CALLDATASIZE SUB DUP2 ADD SWAP1 PUSH2 0xC6 SWAP2 SWAP1 PUSH2 0xBC6 JUMP JUMPDEST PUSH2 0x2A2 JUMP JUMPDEST STOP JUMPDEST PUSH2 0xE7 PUSH1 0x4 DUP1 CALLDATASIZE SUB DUP2 ADD SWAP1 PUSH2 0xE2 SWAP2 SWAP1 PUSH2 0xC96 JUMP JUMPDEST PUSH2 0x3D9 JUMP JUMPDEST STOP JUMPDEST PUSH2 0x103 PUSH1 0x4 DUP1 CALLDATASIZE SUB DUP2 ADD SWAP1 PUSH2 0xFE SWAP2 SWAP1 PUSH2 0xA5F JUMP JUMPDEST PUSH2 0x57B JUMP JUMPDEST STOP JUMPDEST PUSH2 0x11F PUSH1 0x4 DUP1 CALLDATASIZE SUB DUP2 ADD SWAP1 PUSH2 0x11A SWAP2 SWAP1 PUSH2 0xA5F JUMP JUMPDEST PUSH2 0x64C JUMP JUMPDEST PUSH1 0x40 MLOAD PUSH2 0x12F SWAP5 SWAP4 SWAP3 SWAP2 SWAP1 PUSH2 0xD5D JUMP JUMPDEST PUSH1 0x40 MLOAD DUP1 SWAP2 SUB SWAP1 RETURN JUMPDEST PUSH2 0x152 PUSH1 0x4 DUP1 CALLDATASIZE SUB DUP2 ADD SWAP1 PUSH2 0x14D SWAP2 SWAP1 PUSH2 0xDAE JUMP JUMPDEST PUSH2 0x7AF JUMP JUMPDEST PUSH1 0x40 MLOAD PUSH2 0x15F SWAP2 SWAP1 PUSH2 0xDEC JUMP JUMPDEST PUSH1 0x40 MLOAD DUP1 SWAP2 SUB SWAP1 RETURN JUMPDEST PUSH2 0x182 PUSH1 0x4 DUP1 CALLDATASIZE SUB DUP2 ADD SWAP1 PUSH2 0x17D SWAP2 SWAP1 PUSH2 0xC96 JUMP JUMPDEST PUSH2 0x7D9 JUMP JUMPDEST PUSH1 0x40 MLOAD PUSH2 0x18F SWAP2 SWAP1 PUSH2 0xDEC JUMP JUMPDEST PUSH1 0x40 MLOAD DUP1 SWAP2 SUB SWAP1 RETURN JUMPDEST PUSH2 0x1B2 PUSH1 0x4 DUP1 CALLDATASIZE SUB DUP2 ADD SWAP1 PUSH2 0x1AD SWAP2 SWAP1 PUSH2 0xC96 JUMP JUMPDEST PUSH2 0x83B JUMP JUMPDEST STOP JUMPDEST PUSH2 0x1BC PUSH2 0xA15 JUMP JUMPDEST PUSH1 0x40 MLOAD PUSH2 0x1C9 SWAP2 SWAP1 PUSH2 0xE14 JUMP JUMPDEST PUSH1 0x40 MLOAD DUP1 SWAP2 SUB SWAP1 RETURN JUMPDEST DUP1 CALLER PUSH20 0xFFFFFFFFFFFFFFFFFFFFFFFFFFFFFFFFFFFFFFFF AND PUSH0 DUP1 DUP4 DUP2 MSTORE PUSH1 0x20 ADD SWAP1 DUP2 MSTORE PUSH1 0x20 ADD PUSH0 KECCAK256 PUSH1 0x2 ADD PUSH0 SWAP1 SLOAD SWAP1 PUSH2 0x100 EXP SWAP1 DIV PUSH20 0xFFFFFFFFFFFFFFFFFFFFFFFFFFFFFFFFFFFFFFFF AND PUSH20 0xFFFFFFFFFFFFFFFFFFFFFFFFFFFFFFFFFFFFFFFF AND EQ PUSH2 0x273 JUMPI PUSH1 0x40 MLOAD PUSH32 0x8C379A000000000000000000000000000000000000000000000000000000000 DUP2 MSTORE PUSH1 0x4 ADD PUSH2 0x26A SWAP1 PUSH2 0xE77 JUMP JUMPDEST PUSH1 0x40 MLOAD DUP1 SWAP2 SUB SWAP1 REVERT JUMPDEST PUSH0 DUP1 PUSH0 DUP5 DUP2 MSTORE PUSH1 0x20 ADD SWAP1 DUP2 MSTORE PUSH1 0x20 ADD PUSH0 KECCAK256 PUSH1 0x2 ADD PUSH1 0x14 PUSH2 0x100 EXP DUP2 SLOAD DUP2 PUSH1 0xFF MUL NOT AND SWAP1 DUP4 ISZERO ISZERO MUL OR SWAP1 SSTORE POP POP POP JUMP JUMPDEST PUSH1 0x2 PUSH0 DUP2 SLOAD DUP1 SWAP3 SWAP2 SWAP1 PUSH2 0x2B4 SWAP1 PUSH2 0xEC2 JUMP JUMPDEST SWAP2 SWAP1 POP SSTORE POP PUSH1 0x40 MLOAD DUP1 PUSH1 0x80 ADD PUSH1 0x40 MSTORE DUP1 DUP4 DUP2 MSTORE PUSH1 0x20 ADD DUP3 DUP2 MSTORE PUSH1 0x20 ADD CALLER PUSH20 0xFFFFFFFFFFFFFFFFFFFFFFFFFFFFFFFFFFFFFFFF AND DUP2 MSTORE PUSH1 0x20 ADD PUSH1 0x1 ISZERO ISZERO DUP2 MSTORE POP PUSH0 DUP1 PUSH1 0x2 SLOAD DUP2 MSTORE PUSH1 0x20 ADD SWAP1 DUP2 MSTORE PUSH1 0x20 ADD PUSH0 KECCAK256 PUSH0 DUP3 ADD MLOAD DUP2 PUSH0 ADD SWAP1 DUP2 PUSH2 0x318 SWAP2 SWAP1 PUSH2 0x1103 JUMP JUMPDEST POP PUSH1 0x20 DUP3 ADD MLOAD DUP2 PUSH1 0x1 ADD SWAP1 DUP2 PUSH2 0x32E SWAP2 SWAP1 PUSH2 0x1103 JUMP JUMPDEST POP PUSH1 0x40 DUP3 ADD MLOAD DUP2 PUSH1 0x2 ADD PUSH0 PUSH2 0x100 EXP DUP2 SLOAD DUP2 PUSH20 0xFFFFFFFFFFFFFFFFFFFFFFFFFFFFFFFFFFFFFFFF MUL NOT AND SWAP1 DUP4 PUSH20 0xFFFFFFFFFFFFFFFFFFFFFFFFFFFFFFFFFFFFFFFF AND MUL OR SWAP1 SSTORE POP PUSH1 0x60 DUP3 ADD MLOAD DUP2 PUSH1 0x2 ADD PUSH1 0x14 PUSH2 0x100 EXP DUP2 SLOAD DUP2 PUSH1 0xFF MUL NOT AND SWAP1 DUP4 ISZERO ISZERO MUL OR SWAP1 SSTORE POP SWAP1 POP POP PUSH32 0x143BE77A13F3D2312E1153BBF9A5580C985D4A459DCE180F2957D9D7FA004111 PUSH1 0x2 SLOAD DUP4 CALLER PUSH1 0x40 MLOAD PUSH2 0x3CD SWAP4 SWAP3 SWAP2 SWAP1 PUSH2 0x11D2 JUMP JUMPDEST PUSH1 0x40 MLOAD DUP1 SWAP2 SUB SWAP1 LOG1 POP POP JUMP JUMPDEST DUP2 CALLER PUSH20 0xFFFFFFFFFFFFFFFFFFFFFFFFFFFFFFFFFFFFFFFF AND PUSH0 DUP1 DUP4 DUP2 MSTORE PUSH1 0x20 ADD SWAP1 DUP2 MSTORE PUSH1 0x20 ADD PUSH0 KECCAK256 PUSH1 0x2 ADD PUSH0 SWAP1 SLOAD SWAP1 PUSH2 0x100 EXP SWAP1 DIV PUSH20 0xFFFFFFFFFFFFFFFFFFFFFFFFFFFFFFFFFFFFFFFF AND PUSH20 0xFFFFFFFFFFFFFFFFFFFFFFFFFFFFFFFFFFFFFFFF AND EQ PUSH2 0x47A JUMPI PUSH1 0x40 MLOAD PUSH32 0x8C379A000000000000000000000000000000000000000000000000000000000 DUP2 MSTORE PUSH1 0x4 ADD PUSH2 0x471 SWAP1 PUSH2 0xE77 JUMP JUMPDEST PUSH1 0x40 MLOAD DUP1 SWAP2 SUB SWAP1 REVERT JUMPDEST PUSH0 DUP1 DUP5 DUP2 MSTORE PUSH1 0x20 ADD SWAP1 DUP2 MSTORE PUSH1 0x20 ADD PUSH0 KECCAK256 PUSH1 0x2 ADD PUSH1 0x14 SWAP1 SLOAD SWAP1 PUSH2 0x100 EXP SWAP1 DIV PUSH1 0xFF AND PUSH2 0x4DA JUMPI PUSH1 0x40 MLOAD PUSH32 0x8C379A000000000000000000000000000000000000000000000000000000000 DUP2 MSTORE PUSH1 0x4 ADD PUSH2 0x4D1 SWAP1 PUSH2 0x1258 JUMP JUMPDEST PUSH1 0x40 MLOAD DUP1 SWAP2 SUB SWAP1 REVERT JUMPDEST PUSH1 0x1 DUP1 PUSH0 DUP5 PUSH20 0xFFFFFFFFFFFFFFFFFFFFFFFFFFFFFFFFFFFFFFFF AND PUSH20 0xFFFFFFFFFFFFFFFFFFFFFFFFFFFFFFFFFFFFFFFF AND DUP2 MSTORE PUSH1 0x20 ADD SWAP1 DUP2 MSTORE PUSH1 0x20 ADD PUSH0 KECCAK256 PUSH0 DUP6 DUP2 MSTORE PUSH1 0x20 ADD SWAP1 DUP2 MSTORE PUSH1 0x20 ADD PUSH0 KECCAK256 PUSH0 PUSH2 0x100 EXP DUP2 SLOAD DUP2 PUSH1 0xFF MUL NOT AND SWAP1 DUP4 ISZERO ISZERO MUL OR SWAP1 SSTORE POP PUSH32 0x3C3A9147A1FC73DD51A32F4D10C43D457E8CB826EB6F35CAC6349EB965BA82B4 DUP4 DUP4 PUSH1 0x40 MLOAD PUSH2 0x56E SWAP3 SWAP2 SWAP1 PUSH2 0x1276 JUMP JUMPDEST PUSH1 0x40 MLOAD DUP1 SWAP2 SUB SWAP1 LOG1 POP POP POP JUMP JUMPDEST DUP1 CALLER PUSH20 0xFFFFFFFFFFFFFFFFFFFFFFFFFFFFFFFFFFFFFFFF AND PUSH0 DUP1 DUP4 DUP2 MSTORE PUSH1 0x20 ADD SWAP1 DUP2 MSTORE PUSH1 0x20 ADD PUSH0 KECCAK256 PUSH1 0x2 ADD PUSH0 SWAP1 SLOAD SWAP1 PUSH2 0x100 EXP SWAP1 DIV PUSH20 0xFFFFFFFFFFFFFFFFFFFFFFFFFFFFFFFFFFFFFFFF AND PUSH20 0xFFFFFFFFFFFFFFFFFFFFFFFFFFFFFFFFFFFFFFFF AND EQ PUSH2 0x61C JUMPI PUSH1 0x40 MLOAD PUSH32 0x8C379A000000000000000000000000000000000000000000000000000000000 DUP2 MSTORE PUSH1 0x4 ADD PUSH2 0x613 SWAP1 PUSH2 0xE77 JUMP JUMPDEST PUSH1 0x40 MLOAD DUP1 SWAP2 SUB SWAP1 REVERT JUMPDEST PUSH1 0x1 PUSH0 DUP1 DUP5 DUP2 MSTORE PUSH1 0x20 ADD SWAP1 DUP2 MSTORE PUSH1 0x20 ADD PUSH0 KECCAK256 PUSH1 0x2 ADD PUSH1 0x14 PUSH2 0x100 EXP DUP2 SLOAD DUP2 PUSH1 0xFF MUL NOT AND SWAP1 DUP4 ISZERO ISZERO MUL OR SWAP1 SSTORE POP POP POP JUMP JUMPDEST PUSH0 PUSH1 0x20 MSTORE DUP1 PUSH0 MSTORE PUSH1 0x40 PUSH0 KECCAK256 PUSH0 SWAP2 POP SWAP1 POP DUP1 PUSH0 ADD DUP1 SLOAD PUSH2 0x66A SWAP1 PUSH2 0xF36 JUMP JUMPDEST DUP1 PUSH1 0x1F ADD PUSH1 0x20 DUP1 SWAP2 DIV MUL PUSH1 0x20 ADD PUSH1 0x40 MLOAD SWAP1 DUP2 ADD PUSH1 0x40 MSTORE DUP1 SWAP3 SWAP2 SWAP1 DUP2 DUP2 MSTORE PUSH1 0x20 ADD DUP3 DUP1 SLOAD PUSH2 0x696 SWAP1 PUSH2 0xF36 JUMP JUMPDEST DUP1 ISZERO PUSH2 0x6E1 JUMPI DUP1 PUSH1 0x1F LT PUSH2 0x6B8 JUMPI PUSH2 0x100 DUP1 DUP4 SLOAD DIV MUL DUP4 MSTORE SWAP2 PUSH1 0x20 ADD SWAP2 PUSH2 0x6E1 JUMP JUMPDEST DUP3 ADD SWAP2 SWAP1 PUSH0 MSTORE PUSH1 0x20 PUSH0 KECCAK256 SWAP1 JUMPDEST DUP2 SLOAD DUP2 MSTORE SWAP1 PUSH1 0x1 ADD SWAP1 PUSH1 0x20 ADD DUP1 DUP4 GT PUSH2 0x6C4 JUMPI DUP3 SWAP1 SUB PUSH1 0x1F AND DUP3 ADD SWAP2 JUMPDEST POP POP POP POP POP SWAP1 DUP1 PUSH1 0x1 ADD DUP1 SLOAD PUSH2 0x6F6 SWAP1 PUSH2 0xF36 JUMP JUMPDEST DUP1 PUSH1 0x1F ADD PUSH1 0x20 DUP1 SWAP2 DIV MUL PUSH1 0x20 ADD PUSH1 0x40 MLOAD SWAP1 DUP2 ADD PUSH1 0x40 MSTORE DUP1 SWAP3 SWAP2 SWAP1 DUP2 DUP2 MSTORE PUSH1 0x20 ADD DUP3 DUP1 SLOAD PUSH2 0x722 SWAP1 PUSH2 0xF36 JUMP JUMPDEST DUP1 ISZERO PUSH2 0x76D JUMPI DUP1 PUSH1 0x1F LT PUSH2 0x744 JUMPI PUSH2 0x100 DUP1 DUP4 SLOAD DIV MUL DUP4 MSTORE SWAP2 PUSH1 0x20 ADD SWAP2 PUSH2 0x76D JUMP JUMPDEST DUP3 ADD SWAP2 SWAP1 PUSH0 MSTORE PUSH1 0x20 PUSH0 KECCAK256 SWAP1 JUMPDEST DUP2 SLOAD DUP2 MSTORE SWAP1 PUSH1 0x1 ADD SWAP1 PUSH1 0x20 ADD DUP1 DUP4 GT PUSH2 0x750 JUMPI DUP3 SWAP1 SUB PUSH1 0x1F AND DUP3 ADD SWAP2 JUMPDEST POP POP POP POP POP SWAP1 DUP1 PUSH1 0x2 ADD PUSH0 SWAP1 SLOAD SWAP1 PUSH2 0x100 EXP SWAP1 DIV PUSH20 0xFFFFFFFFFFFFFFFFFFFFFFFFFFFFFFFFFFFFFFFF AND SWAP1 DUP1 PUSH1 0x2 ADD PUSH1 0x14 SWAP1 SLOAD SWAP1 PUSH2 0x100 EXP SWAP1 DIV PUSH1 0xFF AND SWAP1 POP DUP5 JUMP JUMPDEST PUSH1 0x1 PUSH1 0x20 MSTORE DUP2 PUSH0 MSTORE PUSH1 0x40 PUSH0 KECCAK256 PUSH1 0x20 MSTORE DUP1 PUSH0 MSTORE PUSH1 0x40 PUSH0 KECCAK256 PUSH0 SWAP2 POP SWAP2 POP SWAP1 SLOAD SWAP1 PUSH2 0x100 EXP SWAP1 DIV PUSH1 0xFF AND DUP2 JUMP JUMPDEST PUSH0 PUSH1 0x1 PUSH0 DUP4 PUSH20 0xFFFFFFFFFFFFFFFFFFFFFFFFFFFFFFFFFFFFFFFF AND PUSH20 0xFFFFFFFFFFFFFFFFFFFFFFFFFFFFFFFFFFFFFFFF AND DUP2 MSTORE PUSH1 0x20 ADD SWAP1 DUP2 MSTORE PUSH1 0x20 ADD PUSH0 KECCAK256 PUSH0 DUP5 DUP2 MSTORE PUSH1 0x20 ADD SWAP1 DUP2 MSTORE PUSH1 0x20 ADD PUSH0 KECCAK256 PUSH0 SWAP1 SLOAD SWAP1 PUSH2 0x100 EXP SWAP1 DIV PUSH1 0xFF AND SWAP1 POP SWAP3 SWAP2 POP POP JUMP JUMPDEST DUP2 CALLER PUSH20 0xFFFFFFFFFFFFFFFFFFFFFFFFFFFFFFFFFFFFFFFF AND PUSH0 DUP1 DUP4 DUP2 MSTORE PUSH1 0x20 ADD SWAP1 DUP2 MSTORE PUSH1 0x20 ADD PUSH0 KECCAK256 PUSH1 0x2 ADD PUSH0 SWAP1 SLOAD SWAP1 PUSH2 0x100 EXP SWAP1 DIV PUSH20 0xFFFFFFFFFFFFFFFFFFFFFFFFFFFFFFFFFFFFFFFF AND PUSH20 0xFFFFFFFFFFFFFFFFFFFFFFFFFFFFFFFFFFFFFFFF AND EQ PUSH2 0x8DC JUMPI PUSH1 0x40 MLOAD PUSH32 0x8C379A000000000000000000000000000000000000000000000000000000000 DUP2 MSTORE PUSH1 0x4 ADD PUSH2 0x8D3 SWAP1 PUSH2 0xE77 JUMP JUMPDEST PUSH1 0x40 MLOAD DUP1 SWAP2 SUB SWAP1 REVERT JUMPDEST PUSH1 0x1 PUSH0 DUP4 PUSH20 0xFFFFFFFFFFFFFFFFFFFFFFFFFFFFFFFFFFFFFFFF AND PUSH20 0xFFFFFFFFFFFFFFFFFFFFFFFFFFFFFFFFFFFFFFFF AND DUP2 MSTORE PUSH1 0x20 ADD SWAP1 DUP2 MSTORE PUSH1 0x20 ADD PUSH0 KECCAK256 PUSH0 DUP5 DUP2 MSTORE PUSH1 0x20 ADD SWAP1 DUP2 MSTORE PUSH1 0x20 ADD PUSH0 KECCAK256 PUSH0 SWAP1 SLOAD SWAP1 PUSH2 0x100 EXP SWAP1 DIV PUSH1 0xFF AND PUSH2 0x974 JUMPI PUSH1 0x40 MLOAD PUSH32 0x8C379A000000000000000000000000000000000000000000000000000000000 DUP2 MSTORE PUSH1 0x4 ADD PUSH2 0x96B SWAP1 PUSH2 0x12E7 JUMP JUMPDEST PUSH1 0x40 MLOAD DUP1 SWAP2 SUB SWAP1 REVERT JUMPDEST PUSH0 PUSH1 0x1 PUSH0 DUP5 PUSH20 0xFFFFFFFFFFFFFFFFFFFFFFFFFFFFFFFFFFFFFFFF AND PUSH20 0xFFFFFFFFFFFFFFFFFFFFFFFFFFFFFFFFFFFFFFFF AND DUP2 MSTORE PUSH1 0x20 ADD SWAP1 DUP2 MSTORE PUSH1 0x20 ADD PUSH0 KECCAK256 PUSH0 DUP6 DUP2 MSTORE PUSH1 0x20 ADD SWAP1 DUP2 MSTORE PUSH1 0x20 ADD PUSH0 KECCAK256 PUSH0 PUSH2 0x100 EXP DUP2 SLOAD DUP2 PUSH1 0xFF MUL NOT AND SWAP1 DUP4 ISZERO ISZERO MUL OR SWAP1 SSTORE POP PUSH32 0x125883B94692BAEBECAD9F111ED97FFA626523BBBADC6B0EF85EE1B56B9E52D5 DUP4 DUP4 PUSH1 0x40 MLOAD PUSH2 0xA08 SWAP3 SWAP2 SWAP1 PUSH2 0x1276 JUMP JUMPDEST PUSH1 0x40 MLOAD DUP1 SWAP2 SUB SWAP1 LOG1 POP POP POP JUMP JUMPDEST PUSH1 0x2 SLOAD DUP2 JUMP JUMPDEST PUSH0 PUSH1 0x40 MLOAD SWAP1 POP SWAP1 JUMP JUMPDEST PUSH0 DUP1 REVERT JUMPDEST PUSH0 DUP1 REVERT JUMPDEST PUSH0 DUP2 SWAP1 POP SWAP2 SWAP1 POP JUMP JUMPDEST PUSH2 0xA3E DUP2 PUSH2 0xA2C JUMP JUMPDEST DUP2 EQ PUSH2 0xA48 JUMPI PUSH0 DUP1 REVERT JUMPDEST POP JUMP JUMPDEST PUSH0 DUP2 CALLDATALOAD SWAP1 POP PUSH2 0xA59 DUP2 PUSH2 0xA35 JUMP JUMPDEST SWAP3 SWAP2 POP POP JUMP JUMPDEST PUSH0 PUSH1 0x20 DUP3 DUP5 SUB SLT ISZERO PUSH2 0xA74 JUMPI PUSH2 0xA73 PUSH2 0xA24 JUMP JUMPDEST JUMPDEST PUSH0 PUSH2 0xA81 DUP5 DUP3 DUP6 ADD PUSH2 0xA4B JUMP JUMPDEST SWAP2 POP POP SWAP3 SWAP2 POP POP JUMP JUMPDEST PUSH0 DUP1 REVERT JUMPDEST PUSH0 DUP1 REVERT JUMPDEST PUSH0 PUSH1 0x1F NOT PUSH1 0x1F DUP4 ADD AND SWAP1 POP SWAP2 SWAP1 POP JUMP JUMPDEST PUSH32 0x4E487B7100000000000000000000000000000000000000000000000000000000 PUSH0 MSTORE PUSH1 0x41 PUSH1 0x4 MSTORE PUSH1 0x24 PUSH0 REVERT JUMPDEST PUSH2 0xAD8 DUP3 PUSH2 0xA92 JUMP JUMPDEST DUP2 ADD DUP2 DUP2 LT PUSH8 0xFFFFFFFFFFFFFFFF DUP3 GT OR ISZERO PUSH2 0xAF7 JUMPI PUSH2 0xAF6 PUSH2 0xAA2 JUMP JUMPDEST JUMPDEST DUP1 PUSH1 0x40 MSTORE POP POP POP JUMP JUMPDEST PUSH0 PUSH2 0xB09 PUSH2 0xA1B JUMP JUMPDEST SWAP1 POP PUSH2 0xB15 DUP3 DUP3 PUSH2 0xACF JUMP JUMPDEST SWAP2 SWAP1 POP JUMP JUMPDEST PUSH0 PUSH8 0xFFFFFFFFFFFFFFFF DUP3 GT ISZERO PUSH2 0xB34 JUMPI PUSH2 0xB33 PUSH2 0xAA2 JUMP JUMPDEST JUMPDEST PUSH2 0xB3D DUP3 PUSH2 0xA92 JUMP JUMPDEST SWAP1 POP PUSH1 0x20 DUP2 ADD SWAP1 POP SWAP2 SWAP1 POP JUMP JUMPDEST DUP3 DUP2 DUP4 CALLDATACOPY PUSH0 DUP4 DUP4 ADD MSTORE POP POP POP JUMP JUMPDEST PUSH0 PUSH2 0xB6A PUSH2 0xB65 DUP5 PUSH2 0xB1A JUMP JUMPDEST PUSH2 0xB00 JUMP JUMPDEST SWAP1 POP DUP3 DUP2 MSTORE PUSH1 0x20 DUP2 ADD DUP5 DUP5 DUP5 ADD GT ISZERO PUSH2 0xB86 JUMPI PUSH2 0xB85 PUSH2 0xA8E JUMP JUMPDEST JUMPDEST PUSH2 0xB91 DUP5 DUP3 DUP6 PUSH2 0xB4A JUMP JUMPDEST POP SWAP4 SWAP3 POP POP POP JUMP JUMPDEST PUSH0 DUP3 PUSH1 0x1F DUP4 ADD SLT PUSH2 0xBAD JUMPI PUSH2 0xBAC PUSH2 0xA8A JUMP JUMPDEST JUMPDEST DUP2 CALLDATALOAD PUSH2 0xBBD DUP5 DUP3 PUSH1 0x20 DUP7 ADD PUSH2 0xB58 JUMP JUMPDEST SWAP2 POP POP SWAP3 SWAP2 POP POP JUMP JUMPDEST PUSH0 DUP1 PUSH1 0x40 DUP4 DUP6 SUB SLT ISZERO PUSH2 0xBDC JUMPI PUSH2 0xBDB PUSH2 0xA24 JUMP JUMPDEST JUMPDEST PUSH0 DUP4 ADD CALLDATALOAD PUSH8 0xFFFFFFFFFFFFFFFF DUP2 GT ISZERO PUSH2 0xBF9 JUMPI PUSH2 0xBF8 PUSH2 0xA28 JUMP JUMPDEST JUMPDEST PUSH2 0xC05 DUP6 DUP3 DUP7 ADD PUSH2 0xB99 JUMP JUMPDEST SWAP3 POP POP PUSH1 0x20 DUP4 ADD CALLDATALOAD PUSH8 0xFFFFFFFFFFFFFFFF DUP2 GT ISZERO PUSH2 0xC26 JUMPI PUSH2 0xC25 PUSH2 0xA28 JUMP JUMPDEST JUMPDEST PUSH2 0xC32 DUP6 DUP3 DUP7 ADD PUSH2 0xB99 JUMP JUMPDEST SWAP2 POP POP SWAP3 POP SWAP3 SWAP1 POP JUMP JUMPDEST PUSH0 PUSH20 0xFFFFFFFFFFFFFFFFFFFFFFFFFFFFFFFFFFFFFFFF DUP3 AND SWAP1 POP SWAP2 SWAP1 POP JUMP JUMPDEST PUSH0 PUSH2 0xC65 DUP3 PUSH2 0xC3C JUMP JUMPDEST SWAP1 POP SWAP2 SWAP1 POP JUMP JUMPDEST PUSH2 0xC75 DUP2 PUSH2 0xC5B JUMP JUMPDEST DUP2 EQ PUSH2 0xC7F JUMPI PUSH0 DUP1 REVERT JUMPDEST POP JUMP JUMPDEST PUSH0 DUP2 CALLDATALOAD SWAP1 POP PUSH2 0xC90 DUP2 PUSH2 0xC6C JUMP JUMPDEST SWAP3 SWAP2 POP POP JUMP JUMPDEST PUSH0 DUP1 PUSH1 0x40 DUP4 DUP6 SUB SLT ISZERO PUSH2 0xCAC JUMPI PUSH2 0xCAB PUSH2 0xA24 JUMP JUMPDEST JUMPDEST PUSH0 PUSH2 0xCB9 DUP6 DUP3 DUP7 ADD PUSH2 0xA4B JUMP JUMPDEST SWAP3 POP POP PUSH1 0x20 PUSH2 0xCCA DUP6 DUP3 DUP7 ADD PUSH2 0xC82 JUMP JUMPDEST SWAP2 POP POP SWAP3 POP SWAP3 SWAP1 POP JUMP JUMPDEST PUSH0 DUP2 MLOAD SWAP1 POP SWAP2 SWAP1 POP JUMP JUMPDEST PUSH0 DUP3 DUP3 MSTORE PUSH1 0x20 DUP3 ADD SWAP1 POP SWAP3 SWAP2 POP POP JUMP JUMPDEST DUP3 DUP2 DUP4 MCOPY PUSH0 DUP4 DUP4 ADD MSTORE POP POP POP JUMP JUMPDEST PUSH0 PUSH2 0xD06 DUP3 PUSH2 0xCD4 JUMP JUMPDEST PUSH2 0xD10 DUP2 DUP6 PUSH2 0xCDE JUMP JUMPDEST SWAP4 POP PUSH2 0xD20 DUP2 DUP6 PUSH1 0x20 DUP7 ADD PUSH2 0xCEE JUMP JUMPDEST PUSH2 0xD29 DUP2 PUSH2 0xA92 JUMP JUMPDEST DUP5 ADD SWAP2 POP POP SWAP3 SWAP2 POP POP JUMP JUMPDEST PUSH2 0xD3D DUP2 PUSH2 0xC5B JUMP JUMPDEST DUP3 MSTORE POP POP JUMP JUMPDEST PUSH0 DUP2 ISZERO ISZERO SWAP1 POP SWAP2 SWAP1 POP JUMP JUMPDEST PUSH2 0xD57 DUP2 PUSH2 0xD43 JUMP JUMPDEST DUP3 MSTORE POP POP JUMP JUMPDEST PUSH0 PUSH1 0x80 DUP3 ADD SWAP1 POP DUP2 DUP2 SUB PUSH0 DUP4 ADD MSTORE PUSH2 0xD75 DUP2 DUP8 PUSH2 0xCFC JUMP JUMPDEST SWAP1 POP DUP2 DUP2 SUB PUSH1 0x20 DUP4 ADD MSTORE PUSH2 0xD89 DUP2 DUP7 PUSH2 0xCFC JUMP JUMPDEST SWAP1 POP PUSH2 0xD98 PUSH1 0x40 DUP4 ADD DUP6 PUSH2 0xD34 JUMP JUMPDEST PUSH2 0xDA5 PUSH1 0x60 DUP4 ADD DUP5 PUSH2 0xD4E JUMP JUMPDEST SWAP6 SWAP5 POP POP POP POP POP JUMP JUMPDEST PUSH0 DUP1 PUSH1 0x40 DUP4 DUP6 SUB SLT ISZERO PUSH2 0xDC4 JUMPI PUSH2 0xDC3 PUSH2 0xA24 JUMP JUMPDEST JUMPDEST PUSH0 PUSH2 0xDD1 DUP6 DUP3 DUP7 ADD PUSH2 0xC82 JUMP JUMPDEST SWAP3 POP POP PUSH1 0x20 PUSH2 0xDE2 DUP6 DUP3 DUP7 ADD PUSH2 0xA4B JUMP JUMPDEST SWAP2 POP POP SWAP3 POP SWAP3 SWAP1 POP JUMP JUMPDEST PUSH0 PUSH1 0x20 DUP3 ADD SWAP1 POP PUSH2 0xDFF PUSH0 DUP4 ADD DUP5 PUSH2 0xD4E JUMP JUMPDEST SWAP3 SWAP2 POP POP JUMP JUMPDEST PUSH2 0xE0E DUP2 PUSH2 0xA2C JUMP JUMPDEST DUP3 MSTORE POP POP JUMP JUMPDEST PUSH0 PUSH1 0x20 DUP3 ADD SWAP1 POP PUSH2 0xE27 PUSH0 DUP4 ADD DUP5 PUSH2 0xE05 JUMP JUMPDEST SWAP3 SWAP2 POP POP JUMP JUMPDEST PUSH32 0x4E6F742074686520746F6F6C206F776E65720000000000000000000000000000 PUSH0 DUP3 ADD MSTORE POP JUMP JUMPDEST PUSH0 PUSH2 0xE61 PUSH1 0x12 DUP4 PUSH2 0xCDE JUMP JUMPDEST SWAP2 POP PUSH2 0xE6C DUP3 PUSH2 0xE2D JUMP JUMPDEST PUSH1 0x20 DUP3 ADD SWAP1 POP SWAP2 SWAP1 POP JUMP JUMPDEST PUSH0 PUSH1 0x20 DUP3 ADD SWAP1 POP DUP2 DUP2 SUB PUSH0 DUP4 ADD MSTORE PUSH2 0xE8E DUP2 PUSH2 0xE55 JUMP JUMPDEST SWAP1 POP SWAP2 SWAP1 POP JUMP JUMPDEST PUSH32 0x4E487B7100000000000000000000000000000000000000000000000000000000 PUSH0 MSTORE PUSH1 0x11 PUSH1 0x4 MSTORE PUSH1 0x24 PUSH0 REVERT JUMPDEST PUSH0 PUSH2 0xECC DUP3 PUSH2 0xA2C JUMP JUMPDEST SWAP2 POP PUSH32 0xFFFFFFFFFFFFFFFFFFFFFFFFFFFFFFFFFFFFFFFFFFFFFFFFFFFFFFFFFFFFFFFF DUP3 SUB PUSH2 0xEFE JUMPI PUSH2 0xEFD PUSH2 0xE95 JUMP JUMPDEST JUMPDEST PUSH1 0x1 DUP3 ADD SWAP1 POP SWAP2 SWAP1 POP JUMP JUMPDEST PUSH32 0x4E487B7100000000000000000000000000000000000000000000000000000000 PUSH0 MSTORE PUSH1 0x22 PUSH1 0x4 MSTORE PUSH1 0x24 PUSH0 REVERT JUMPDEST PUSH0 PUSH1 0x2 DUP3 DIV SWAP1 POP PUSH1 0x1 DUP3 AND DUP1 PUSH2 0xF4D JUMPI PUSH1 0x7F DUP3 AND SWAP2 POP JUMPDEST PUSH1 0x20 DUP3 LT DUP2 SUB PUSH2 0xF60 JUMPI PUSH2 0xF5F PUSH2 0xF09 JUMP JUMPDEST JUMPDEST POP SWAP2 SWAP1 POP JUMP JUMPDEST PUSH0 DUP2 SWAP1 POP DUP2 PUSH0 MSTORE PUSH1 0x20 PUSH0 KECCAK256 SWAP1 POP SWAP2 SWAP1 POP JUMP JUMPDEST PUSH0 PUSH1 0x20 PUSH1 0x1F DUP4 ADD DIV SWAP1 POP SWAP2 SWAP1 POP JUMP JUMPDEST PUSH0 DUP3 DUP3 SHL SWAP1 POP SWAP3 SWAP2 POP POP JUMP JUMPDEST PUSH0 PUSH1 0x8 DUP4 MUL PUSH2 0xFC2 PUSH32 0xFFFFFFFFFFFFFFFFFFFFFFFFFFFFFFFFFFFFFFFFFFFFFFFFFFFFFFFFFFFFFFFF DUP3 PUSH2 0xF87 JUMP JUMPDEST PUSH2 0xFCC DUP7 DUP4 PUSH2 0xF87 JUMP JUMPDEST SWAP6 POP DUP1 NOT DUP5 AND SWAP4 POP DUP1 DUP7 AND DUP5 OR SWAP3 POP POP POP SWAP4 SWAP3 POP POP POP JUMP JUMPDEST PUSH0 DUP2 SWAP1 POP SWAP2 SWAP1 POP JUMP JUMPDEST PUSH0 PUSH2 0x1007 PUSH2 0x1002 PUSH2 0xFFD DUP5 PUSH2 0xA2C JUMP JUMPDEST PUSH2 0xFE4 JUMP JUMPDEST PUSH2 0xA2C JUMP JUMPDEST SWAP1 POP SWAP2 SWAP1 POP JUMP JUMPDEST PUSH0 DUP2 SWAP1 POP SWAP2 SWAP1 POP JUMP JUMPDEST PUSH2 0x1020 DUP4 PUSH2 0xFED JUMP JUMPDEST PUSH2 0x1034 PUSH2 0x102C DUP3 PUSH2 0x100E JUMP JUMPDEST DUP5 DUP5 SLOAD PUSH2 0xF93 JUMP JUMPDEST DUP3 SSTORE POP POP POP POP JUMP JUMPDEST PUSH0 SWAP1 JUMP JUMPDEST PUSH2 0x1048 PUSH2 0x103C JUMP JUMPDEST PUSH2 0x1053 DUP2 DUP5 DUP5 PUSH2 0x1017 JUMP JUMPDEST POP POP POP JUMP JUMPDEST JUMPDEST DUP2 DUP2 LT ISZERO PUSH2 0x1076 JUMPI PUSH2 0x106B PUSH0 DUP3 PUSH2 0x1040 JUMP JUMPDEST PUSH1 0x1 DUP2 ADD SWAP1 POP PUSH2 0x1059 JUMP JUMPDEST POP POP JUMP JUMPDEST PUSH1 0x1F DUP3 GT ISZERO PUSH2 0x10BB JUMPI PUSH2 0x108C DUP2 PUSH2 0xF66 JUMP JUMPDEST PUSH2 0x1095 DUP5 PUSH2 0xF78 JUMP JUMPDEST DUP2 ADD PUSH1 0x20 DUP6 LT ISZERO PUSH2 0x10A4 JUMPI DUP2 SWAP1 POP JUMPDEST PUSH2 0x10B8 PUSH2 0x10B0 DUP6 PUSH2 0xF78 JUMP JUMPDEST DUP4 ADD DUP3 PUSH2 0x1058 JUMP JUMPDEST POP POP JUMPDEST POP POP POP JUMP JUMPDEST PUSH0 DUP3 DUP3 SHR SWAP1 POP SWAP3 SWAP2 POP POP JUMP JUMPDEST PUSH0 PUSH2 0x10DB PUSH0 NOT DUP5 PUSH1 0x8 MUL PUSH2 0x10C0 JUMP JUMPDEST NOT DUP1 DUP4 AND SWAP2 POP POP SWAP3 SWAP2 POP POP JUMP JUMPDEST PUSH0 PUSH2 0x10F3 DUP4 DUP4 PUSH2 0x10CC JUMP JUMPDEST SWAP2 POP DUP3 PUSH1 0x2 MUL DUP3 OR SWAP1 POP SWAP3 SWAP2 POP POP JUMP JUMPDEST PUSH2 0x110C DUP3 PUSH2 0xCD4 JUMP JUMPDEST PUSH8 0xFFFFFFFFFFFFFFFF DUP2 GT ISZERO PUSH2 0x1125 JUMPI PUSH2 0x1124 PUSH2 0xAA2 JUMP JUMPDEST JUMPDEST PUSH2 0x112F DUP3 SLOAD PUSH2 0xF36 JUMP JUMPDEST PUSH2 0x113A DUP3 DUP3 DUP6 PUSH2 0x107A JUMP JUMPDEST PUSH0 PUSH1 0x20 SWAP1 POP PUSH1 0x1F DUP4 GT PUSH1 0x1 DUP2 EQ PUSH2 0x116B JUMPI PUSH0 DUP5 ISZERO PUSH2 0x1159 JUMPI DUP3 DUP8 ADD MLOAD SWAP1 POP JUMPDEST PUSH2 0x1163 DUP6 DUP3 PUSH2 0x10E8 JUMP JUMPDEST DUP7 SSTORE POP PUSH2 0x11CA JUMP JUMPDEST PUSH1 0x1F NOT DUP5 AND PUSH2 0x1179 DUP7 PUSH2 0xF66 JUMP JUMPDEST PUSH0 JUMPDEST DUP3 DUP2 LT ISZERO PUSH2 0x11A0 JUMPI DUP5 DUP10 ADD MLOAD DUP3 SSTORE PUSH1 0x1 DUP3 ADD SWAP2 POP PUSH1 0x20 DUP6 ADD SWAP5 POP PUSH1 0x20 DUP2 ADD SWAP1 POP PUSH2 0x117B JUMP JUMPDEST DUP7 DUP4 LT ISZERO PUSH2 0x11BD JUMPI DUP5 DUP10 ADD MLOAD PUSH2 0x11B9 PUSH1 0x1F DUP10 AND DUP3 PUSH2 0x10CC JUMP JUMPDEST DUP4 SSTORE POP JUMPDEST PUSH1 0x1 PUSH1 0x2 DUP9 MUL ADD DUP9 SSTORE POP POP POP JUMPDEST POP POP POP POP POP POP JUMP JUMPDEST PUSH0 PUSH1 0x60 DUP3 ADD SWAP1 POP PUSH2 0x11E5 PUSH0 DUP4 ADD DUP7 PUSH2 0xE05 JUMP JUMPDEST DUP2 DUP2 SUB PUSH1 0x20 DUP4 ADD MSTORE PUSH2 0x11F7 DUP2 DUP6 PUSH2 0xCFC JUMP JUMPDEST SWAP1 POP PUSH2 0x1206 PUSH1 0x40 DUP4 ADD DUP5 PUSH2 0xD34 JUMP JUMPDEST SWAP5 SWAP4 POP POP POP POP JUMP JUMPDEST PUSH32 0x546F6F6C206973206E6F74206163746976650000000000000000000000000000 PUSH0 DUP3 ADD MSTORE POP JUMP JUMPDEST PUSH0 PUSH2 0x1242 PUSH1 0x12 DUP4 PUSH2 0xCDE JUMP JUMPDEST SWAP2 POP PUSH2 0x124D DUP3 PUSH2 0x120E JUMP JUMPDEST PUSH1 0x20 DUP3 ADD SWAP1 POP SWAP2 SWAP1 POP JUMP JUMPDEST PUSH0 PUSH1 0x20 DUP3 ADD SWAP1 POP DUP2 DUP2 SUB PUSH0 DUP4 ADD MSTORE PUSH2 0x126F DUP2 PUSH2 0x1236 JUMP JUMPDEST SWAP1 POP SWAP2 SWAP1 POP JUMP JUMPDEST PUSH0 PUSH1 0x40 DUP3 ADD SWAP1 POP PUSH2 0x1289 PUSH0 DUP4 ADD DUP6 PUSH2 0xE05 JUMP JUMPDEST PUSH2 0x1296 PUSH1 0x20 DUP4 ADD DUP5 PUSH2 0xD34 JUMP JUMPDEST SWAP4 SWAP3 POP POP POP JUMP JUMPDEST PUSH32 0x5573657220646F6573206E6F7420686176652061636365737300000000000000 PUSH0 DUP3 ADD MSTORE POP JUMP JUMPDEST PUSH0 PUSH2 0x12D1 PUSH1 0x19 DUP4 PUSH2 0xCDE JUMP JUMPDEST SWAP2 POP PUSH2 0x12DC DUP3 PUSH2 0x129D JUMP JUMPDEST PUSH1 0x20 DUP3 ADD SWAP1 POP SWAP2 SWAP1 POP JUMP JUMPDEST PUSH0 PUSH1 0x20 DUP3 ADD SWAP1 POP DUP2 DUP2 SUB PUSH0 DUP4 ADD MSTORE PUSH2 0x12FE DUP2 PUSH2 0x12C5 JUMP JUMPDEST SWAP1 POP SWAP2 SWAP1 POP JUMP INVALID LOG2 PUSH5 0x6970667358 0x22 SLT KECCAK256 SHL 0xDC CREATE PUSH20 0x5FBD68A80BA4D25EDD89C64746876CB95371FDD8 0x4F SHR MULMOD PUSH25 0x962B6EDC64736F6C634300081A003300000000000000000000 "
				},
				"gasEstimates": {
					"creation": {
						"codeDepositCost": "984600",
						"executionCost": "1019",
						"totalCost": "985619"
					},
					"external": {
						"deactivateTool(uint256)": "27056",
						"grantAccess(uint256,address)": "infinite",
						"hasAccess(uint256,address)": "3161",
						"reactivateTool(uint256)": "27123",
						"registerTool(string,string)": "infinite",
						"revokeAccess(uint256,address)": "infinite",
						"toolCount()": "2513",
						"tools(uint256)": "infinite",
						"userAccess(address,uint256)": "3093"
					}
				},
				"methodIdentifiers": {
					"deactivateTool(uint256)": "20d79486",
					"grantAccess(uint256,address)": "65dd152c",
					"hasAccess(uint256,address)": "ced14198",
					"reactivateTool(uint256)": "b861a453",
					"registerTool(string,string)": "4ad35e2e",
					"revokeAccess(uint256,address)": "d9a5ec1b",
					"toolCount()": "faf23b23",
					"tools(uint256)": "bc60c31d",
					"userAccess(address,uint256)": "c82d3a55"
				}
			},
			"storageLayout": {
				"storage": [
					{
						"astId": 15,
						"contract": "EdTechIntegrationHub.sol:EdTechIntegrationHub",
						"label": "tools",
						"offset": 0,
						"slot": "0",
						"type": "t_mapping(t_uint256,t_struct(Tool)10_storage)"
					},
					{
						"astId": 21,
						"contract": "EdTechIntegrationHub.sol:EdTechIntegrationHub",
						"label": "userAccess",
						"offset": 0,
						"slot": "1",
						"type": "t_mapping(t_address,t_mapping(t_uint256,t_bool))"
					},
					{
						"astId": 23,
						"contract": "EdTechIntegrationHub.sol:EdTechIntegrationHub",
						"label": "toolCount",
						"offset": 0,
						"slot": "2",
						"type": "t_uint256"
					}
				],
				"types": {
					"t_address": {
						"encoding": "inplace",
						"label": "address",
						"numberOfBytes": "20"
					},
					"t_bool": {
						"encoding": "inplace",
						"label": "bool",
						"numberOfBytes": "1"
					},
					"t_mapping(t_address,t_mapping(t_uint256,t_bool))": {
						"encoding": "mapping",
						"key": "t_address",
						"label": "mapping(address => mapping(uint256 => bool))",
						"numberOfBytes": "32",
						"value": "t_mapping(t_uint256,t_bool)"
					},
					"t_mapping(t_uint256,t_bool)": {
						"encoding": "mapping",
						"key": "t_uint256",
						"label": "mapping(uint256 => bool)",
						"numberOfBytes": "32",
						"value": "t_bool"
					},
					"t_mapping(t_uint256,t_struct(Tool)10_storage)": {
						"encoding": "mapping",
						"key": "t_uint256",
						"label": "mapping(uint256 => struct EdTechIntegrationHub.Tool)",
						"numberOfBytes": "32",
						"value": "t_struct(Tool)10_storage"
					},
					"t_string_storage": {
						"encoding": "bytes",
						"label": "string",
						"numberOfBytes": "32"
					},
					"t_struct(Tool)10_storage": {
						"encoding": "inplace",
						"label": "struct EdTechIntegrationHub.Tool",
						"members": [
							{
								"astId": 3,
								"contract": "EdTechIntegrationHub.sol:EdTechIntegrationHub",
								"label": "name",
								"offset": 0,
								"slot": "0",
								"type": "t_string_storage"
							},
							{
								"astId": 5,
								"contract": "EdTechIntegrationHub.sol:EdTechIntegrationHub",
								"label": "description",
								"offset": 0,
								"slot": "1",
								"type": "t_string_storage"
							},
							{
								"astId": 7,
								"contract": "EdTechIntegrationHub.sol:EdTechIntegrationHub",
								"label": "owner",
								"offset": 0,
								"slot": "2",
								"type": "t_address"
							},
							{
								"astId": 9,
								"contract": "EdTechIntegrationHub.sol:EdTechIntegrationHub",
								"label": "isActive",
								"offset": 20,
								"slot": "2",
								"type": "t_bool"
							}
						],
						"numberOfBytes": "96"
					},
					"t_uint256": {
						"encoding": "inplace",
						"label": "uint256",
						"numberOfBytes": "32"
					}
				}
			},
			"userdoc": {
				"kind": "user",
				"methods": {},
				"version": 1
			}
		}
	}
}